:020000040800F2
:1000000030050020010100080F130008A1120008AC
:100010000D13000899010008C11500080000000038
:100020000000000000000000000000003115000882
:10003000D301000800000000111300083315000868
:100040001B0100081B0100081B0100081B01000820
:100050001B0100081B0100081B0100081B01000810
:100060001B0100081B0100081B0100081B01000800
:100070001B0100081B0100089D0100081B0100086E
:100080001B0100081B0100081B0100081B010008E0
:100090001B0100081B0100081B0100081B010008D0
:1000A0001B0100081B0100081B0100081B010008C0
:1000B0001B0100081B0100081B0100081B010008B0
:1000C0001B0100081B0100081B0100081513000894
:1000D000211300081B0100081B0100081B01000878
:1000E0001B0100081B0100081B010008DFF80CD0F1
:1000F00000F040F8004800478D1700083005002048
:100100000648804706480047FEE7FEE7FEE7FEE7B1
:10011000FEE7FEE7FEE7FEE7FEE7FEE779150008EB
:10012000ED000008D2B201E000F8012B491EFBD21D
:1001300070470022F6E710B513460A4604461946F2
:10014000FFF7F0FF204610BD30B50B4601460020FA
:100150002022012409E021FA02F59D4205D303FA89
:1001600002F5491B04FA02F52844151EA2F101020A
:10017000F1DC30BD064C074D06E0E06840F00103BD
:1001800094E8070098471034AC42F6D3FFF7B2FF6B
:100190009C180008BC180008FEE70000014800F0A9
:1001A00067B80000EC00002030B590F84050012402
:1001B000AC40C56B6C60046863604368102B0368D7
:1001C00003D099600068C26030BD9A600068C16069
:1001D00030BD70477047000010B590F82110002422
:1001E000022903D00421816301243DE001680A68EB
:1001F00022F00E020A6001680A6822F001020A6019
:100200001A4A0168914201D1012121E0174A1432B2
:10021000914201D110211BE0144A2832914201D1B0
:10022000891515E0114A3C32914201D189140FE041
:100230000E4A5032914202D14FF4803108E00B4A0D
:100240006432914202D14FF4801101E04FF080718D
:10025000064A083A5160012180F82110002180F8F7
:100260002010416B01B18847204610BD08000240B4
:100270002DE9F05FC16B0C6801680B68D0F840C0D5
:10028000042202FA0CF2494DDFF824A1494E4A4FEC
:10029000DFF828B1DFF828E122422CD05A072AD50E
:1002A0000A68920603D40A6822F004020A60016810
:1002B000A94201D1042219E0514501D1402215E0A3
:1002C000B14202D14FF4806210E0B94202D14FF442
:1002D00080420BE0594502D14FF4802206E071457F
:1002E00002D14FF4800201E04FF080622F490839BB
:1002F0004A60C16A3BE04FF0020808FA0CF818EABD
:10030000040F4FF000094FF0010235D05FEA837807
:1003100032D50B689B0605D40B6823F00A030B60EB
:1003200080F821200168A94201D1022219E051453B
:1003300001D1202215E0B14202D14FF4007210E049
:10034000B94202D14FF400520BE0594502D14FF4AB
:10035000003206E0714502D14FF4001201E04FF087
:100360000072124908394A6080F82090816A002999
:100370001AD0BDE8F05F0847082505FA0CF52542BC
:1003800012D01B0710D50B6823F00E030B6090F8FA
:100390004010C36B02FA01F15960826380F821209A
:1003A00080F82090016BE2E7BDE8F09F0800024072
:1003B0001C0002403000024044000240580002404D
:1003C0006C00024030B528B308C813491422194400
:1003D000B1FBF2F18900C1631049816302214177C9
:1003E0001A6843F6F0718A43D0E900142143D0E93A
:1003F00002452C4321430469214344692143846914
:1004000021431143196000214163012242770177A2
:10041000084630BD012030BDF8FFFDBF000002409E
:1004200070B5044690F82000002501280CD001206A
:1004300084F8200094F821600020012E06D084F872
:1004400020000225284670BD022070BD022684F8D7
:100450002160A0632068066826F001060660204639
:10046000FFF7A2FEE06A00282068016802D041F090
:100470000E0106E021F0040101602068016841F0EE
:100480000A0101602068016841F001010160D9E7BB
:1004900070B5044600F004F90546601C02D004481B
:1004A0000078044400F0FCF8401BA042FAD370BD71
:1004B000180000202DE9F84FDFF8B891002409F169
:1004C000040A0AF1040B23460F270BF1040EC9E0BE
:1004D0000125A5402A40AA427DD1674ED1F804C02B
:1004E000ACEB0608B44532D014DCBCF1030F3AD0B3
:1004F00009DCBCF1000F2AD0BCF1010F1CD0BCF10B
:10050000020F31D11DE0BCF1110F17D0BCF1120F59
:100510002AD119E0B8F5881F19D006DCB8F5803F5C
:1005200015D0B8F5801F1FD111E0B8F5001F0ED00F
:10053000B8F5041F18D10AE0CB6815E0CB681B1D85
:1005400012E0CB6808330FE0CB680C330CE08B680B
:100550002BB1012B4FF0080303D0456104E00423C5
:1005600002E0056100E00023FF2A01D8064601E011
:1005700000F104064FEA840501D9A5F12005D6F85B
:10058000008007FA05FC28EA0C0803FA05F548EA9A
:100590000508C6F800804D68ED0062D5374DAE699C
:1005A00046F00106AE61AD6924F0030605F00105D1
:1005B0000095334D06EB050CDCF80850A607360F06
:1005C00007FA06F825EA0805DFF8B880404503D1A8
:1005D0004FF0000817E044E0DFF8AC80404502D15E
:1005E0004FF001080FE0DFF8A480404502D14FF042
:1005F000020808E0DFF89880404502D14FF0030878
:1006000001E04FF0040808FA06F848EA0508CCF8BB
:1006100008804D68D9F80060ED034D4601D51643BA
:1006200000E096432E604D68DAF80060AD03554651
:1006300001D5164300E096432E604D68DBF800605C
:10064000ED025D4601D5164300E096432E604D68ED
:10065000DEF80060AD02754601D5164300E0964312
:100660002E60641C0D682A46E5407FF431AFBDE87A
:10067000F88F00000004014000001110001002403B
:100680000000014000080140000C01400010014042
:10069000001401400AB1016170470904FBE7000042
:1006A00001488068704700001800002002488168F7
:1006B000027811448160704718000020074810B587
:1006C000016841F010010160032000F075F800207E
:1006D00000F006F800F024F8002010BD00200240D1
:1006E00070B50D4D04464FF47A712878B1FBF0F0E7
:1006F0000A490968B1FBF0F000F0BEFD48B9102CC2
:1007000007D200222146501E00F036F800206C600F
:1007100070BD012070BD00001800002024000020E2
:100720000C4808B5816941F001018161816901F0DE
:1007300001010091C16941F08051C161C06900F0BF
:10074000805000900448416821F0E06141F0007160
:10075000416008BD0010024000000140002809DB94
:1007600000F01F02012191404009800000F1E020CB
:10077000C0F8001170470000F0B40E4B1B680C4627
:10078000C3F30223C3F10705042D00D90425191D65
:10079000072901D2002300E0DB1E012606FA05F13D
:1007A000491E214099409E40761E16403143F0BCC0
:1007B00000F01CBF0CED00E0064900F007020868DD
:1007C0004FF6FF03184040EA0220034A1043086036
:1007D000704700000CED00E00000FA052DE9F0473D
:1007E0000F46050061D0434E306800F00700B84264
:1007F00009D2306820F0070038433060306800F0DC
:100800000700B84251D128683B4C810712D54007F8
:1008100003D5606840F4E06060602878000703D585
:10082000606840F4605060606068A96820F0F00083
:10083000084360602878C00728D06868012810D075
:100840002168022810D0890700292EDA616821F07A
:10085000030101436160FFF723FF804641F28839BD
:100860000DE021688903EFE78901EDE7FFF718FF45
:10087000A0EB0801494502D90320BDE8F087606874
:10088000696800F00C00B0EB810FEFD1306800F028
:100890000700B8420BD9306820F0070038433060B9
:1008A000306800F00700B84201D00120E5E7287861
:1008B000400705D56068E96820F4E060084360609F
:1008C0002878000706D56068296920F4605040EA5E
:1008D000C100606000F018F86168084AC1F30311B4
:1008E000515CC8400649086006480068FFF7F8FEFA
:1008F0000020C2E700200240001002408C180008CF
:10090000240000201C00002012A185B00FC98DE832
:100910000F0014A0144A006804905168134801F0B5
:100920000C03042B10D0082B0ED1C1F38343C90351
:100930001DF803000AD5516804AAC1F34041515C77
:100940000A4A5043B0FBF1F005B0704708494843EC
:10095000FAE7000002030405060708090A0B0C0D5C
:100960000E0F1010010200000010024000127A0069
:1009700000093D002DE9F84F040070D02078C04DEB
:10098000C00749D06868C0F38100012807D06868B3
:10099000C0F38100022809D16868C00306D5286821
:1009A000800339D560680028E7D035E06068B0F58D
:1009B000803F0BD010B1B0F5A02F11D0286820F4E3
:1009C00080302860286820F4802002E0286840F405
:1009D00080302860606890B1FFF762FE06460AE04A
:1009E000286840F480202860F0E700BFFFF758FE39
:1009F000801B642873D828688003F7D50CE0FFF7C4
:100A00004FFE064605E000BFFFF74AFE801B642844
:100A1000F0D828688003F7D420789A4E80074FF0EA
:100A200001094FF0000839D5686810F00C0F07D0A5
:100A30006868C0F38100022809D16868C00306D441
:100A40002868800714D52069012808D110E02069A2
:100A5000B0B1C6F80090FFF723FE074605E00AE1B3
:100A6000FFF71EFEC01B0228C4D828688007F7D5F0
:100A70002868616920F0F80040EAC10028600DE0B4
:100A8000C6F80080FFF70CFE074604E0FFF708FEFB
:100A9000C01B022823D828688007F7D420780007D5
:100AA0002CD57948A169D9B1C0F80090FFF7F8FDBD
:100AB000074604E0FFF7F4FDC01B02280FD8686A60
:100AC0008007F7D571484FF4FA510068B0FBF1F098
:100AD000009000BF0098411E0091FAD20EE080E025
:100AE000C0F80080FFF7DCFD074604E0FFF7D8FD03
:100AF000C01B022875D8686A8007F7D420784007A1
:100B000060D5E8690027C00008D4E86940F080504B
:100B1000E861E869012700F0805000905C480168B6
:100B2000C90513D40168834641F480710160FFF761
:100B3000B7FD824606E000BFFFF7B2FDA0EB0A005A
:100B400064284ED8DBF80000C005F5D5E068012820
:100B50000AD008B1052813D0286A20F001002862C5
:100B6000286A20F0040002E0286A40F001002862B0
:100B7000E06841F2883B98B1FFF792FD82460BE0B6
:100B8000286A40F004002862EEE700BFFFF788FD06
:100B9000A0EB0A0159455AD8286A8007F6D50CE01F
:100BA000FFF77EFD824605E0FFF77AFDA0EB0A0124
:100BB00059454CD8286A8007F6D41FB1E86920F05F
:100BC0008050E861E06988B36968C1F38101022956
:100BD00044D00228C6F8608004D0FFF761FD0446C7
:100BE00038E034E0FFF75CFD074604E0FFF758FD0E
:100BF000C01B02282BD828688001F7D4206AB0F5E2
:100C0000803F05D16868A16820F40030084368601F
:100C1000D4E908010843696821F474110843686045
:100C2000C6F86090FFF73CFD044606E025E000BFF3
:100C3000FFF736FD001B022809D828688001F7D588
:100C40001BE000BFFFF72CFD001B022802D9032088
:100C5000BDE8F88F28688001F4D40EE00128F7D0B1
:100C60006868226A00F48031914204D1616A00F41C
:100C70007010884201D00120EAE70020E8E7000078
:100C80000010024000004242800442422400002042
:100C9000007000407047000038B5044600684268A4
:100CA0008168C9434B0606D5CB0704D1D3435B0605
:100CB00001D4216C05E08B0708D4D3431B0605D46F
:100CC000616C01B02046BDE8304008478B0601D575
:100CD0004B0646D4D3439B0643D44B060AD494F820
:100CE0005130032B3ED0636D43F004036365C3684A
:100CF00083680093890609D4616D41F00101616543
:100D000081680091016821F040010160606D002858
:100D100027D02068416821F0E0014160012084F87B
:100D20005100900722D02068416821F00301416002
:100D3000104DE06C40B14563E06CFFF74DFA18B11F
:100D4000606D40F040006065A06C002809D04563EC
:100D5000A06CFFF741FA002803D0606D40F040001E
:100D6000606538BDC1688068009038BD2046FFF7D7
:100D700091FF38BD2D13000870B5040005D0002583
:100D8000A56294F8510010B106E0012070BD84F80E
:100D90005050204600F02EF8022084F851002068C0
:100DA000016821F040010160D4E901010843D4E960
:100DB00003121143084361690843218B01F4007158
:100DC0000843E1690843216A0843A16A084321688E
:100DD0000860A069042101EA104021684860206889
:100DE000C16921F40061C1616565012084F8510089
:100DF000002070BD2DE9F04186B0002500950195D9
:100E0000029503950646394A0168394802240327AA
:100E1000914227D1816941F480518161816901F456
:100E200080510491816941F00401816180696946C2
:100E300000F004000490A020CDE900042D4C03979D
:100E40002046FFF737FB4020CDE9000569462046E4
:100E50000295FFF72FFB002211462320FFF78CFCA1
:100E600023203EE0244A91423DD1C16941F48041B2
:100E7000C161C16901F480410491816941F00801B7
:100E800081618069DFF8748000F0080004904FF4FD
:100E90003040009069464046FFF70CFB4FF480401D
:100EA000CDE90004694603974046FFF703FB154C64
:100EB0001348C4E900058020C4E9025020202561C0
:100EC000C4E905502046E561FFF77CFA08B1FFF759
:100ED00081F9F4640022114624206662FFF74CFC7D
:100EE0002420FFF73BFC06B0BDE8F0810030014054
:100EF000001002400008014000380040000C014092
:100F000044000240EC0000202DE9F0410446002698
:100F10008068042318B96568B5F5827F0ED094F80F
:100F20005050012D13D0012784F8507094F851C00F
:100F30000025BCF1010F0DD002264FE084F851309E
:100F40002046BDE8F04113460A4600F001B90220F0
:100F5000BDE8F08171B16AB184F851306565A16373
:100F6000A287E28725646564A586E586B0F5004F13
:100F700002D006E0012631E02068016821F48041BA
:100F80000160E16C1748C862E16C17488862E16C47
:100F900016480863E06C4563E38F2168A26B0C314F
:100FA000E06CFFF73DFA38B1606D40F0100060650D
:100FB000012684F8517011E020680168490603D4C5
:100FC000016841F0400101602068416841F0200162
:100FD00041602068416841F00101416084F850504F
:100FE0003046B5E75F130008731300083D1300088F
:100FF000704770472DE9F84F044690F850000027DD
:101000001D461646894601280DD04FF0010B84F885
:1010100050B0FFF745FB804694F85100BA460128CE
:1010200004D002278EE00220BDE8F88FB9F1000F4E
:101030007DD0002E7BD0032084F85100C4F854A04A
:10104000C4F83090A686E686C4F838A0A4F83CA080
:10105000A4F83EA0C4F844A0C4F840A0A068B0F52D
:10106000004F04D12068016841F48041016020688C
:101070000168490603D4016841F040010160E0685D
:10108000B0F5006F606803D030B3012E24D040E08B
:1010900008B1012E1CD1206B21680088C86006E0D1
:1010A00020688168890709D5216B0988C160206B98
:1010B000801C2063E08E401EE08609E0FFF7F0FA16
:1010C000A0EB0800A84202D3681C01D031E07DB338
:1010D000E08E0028E4D11FE0206B216800780873BF
:1010E00006E020688168890709D5216B09780173BA
:1010F000206B401C2063E08E401EE08609E0FFF775
:10110000CFFAA0EB0800A84202D3681C01D010E07F
:1011100075B1E08E0028E4D142462946204600F011
:10112000ADF908B120206065A06820B107E008E0B3
:10113000FFE7032706E02068C16880680090606DC3
:1011400000B1012784F851B084F850A038466BE70D
:101150002DE9F041044690F85000002601280DD0FA
:10116000012784F8507094F851000025D4F804C089
:1011700001280FD0BCF5827F0AD102E00220BDE831
:10118000F081D4F808C0BCF1000F01D1042801D0CF
:10119000022660E049B342B33BB394F851000428FF
:1011A00002D0052084F8510065652163A386E3869B
:1011B000A263A387E3872564656494F8510004283B
:1011C00015D0E16C2648C8622648E16C8862E16C63
:1011D00025480863E06C4563E38F2168A26B0C31FE
:1011E000E06CFFF71DF9E0B906E0012633E0E16CA1
:1011F0001E48C8621E48E8E72068416841F00101C6
:101200004160A06CC562A06C8562A06C0563A06C97
:101210004563E38E2268216B0C32A06CFFF700F966
:1012200038B1606D40F010006065012684F851709F
:1012300011E020680168490603D4016841F04001CB
:1012400001602068416841F02001416020684168E8
:1012500041F00201416084F8505030468FE70000B1
:1012600069130008C71300083D1300085F13000846
:10127000731300087047704710B5401EB0F1807FAF
:1012800001D3012010BD4FF0E02460610F216017F1
:1012900000F0ACF90020A06107202061002010BD03
:1012A000FEE700000C480B494FF4007201604FF458
:1012B0008271416000218160C1600161C0E9051255
:1012C0001022C0E90721416281620A21C162FFF751
:1012D00053BD0000003001403C0000200A4809498D
:1012E00010220160002141608160C16001614161A3
:1012F000C0E906120162416281620A21C162FFF700
:101300003BBD00000038004094000020FEE770471D
:10131000704700000148FFF7BFBC00003C00002000
:101320000148FFF7B9BC00009400002010B5406AE6
:101330000021C187C186FFF7ADFC10BD10B5406A22
:1013400001684A6822F003024A60416D41F01001D1
:101350004165012180F85110FFF79CFC10BD10B5CC
:10136000406AFFF746FE10BD10B5406AFFF783FFE5
:1013700010BD70B50546446AFFF792F90246286829
:10138000006880061BD42068416821F0200141607C
:101390002068416821F0030141606421204600F08B
:1013A0003FF808B1202060650020E087012084F824
:1013B0005100606D18B12046FFF76CFC70BD2046EF
:1013C000FFF716FE70BD70B50546446AFFF768F971
:1013D00002462868006880061ED42068416821F013
:1013E000200141606421204600F048F818B1606D8A
:1013F00040F0200060652068416821F003014160F1
:101400000020E086E087012084F85100606D18B16B
:101410002046FFF73FFC70BD2046FFF72BFF70BD55
:10142000F8B5044640684FF48273984217D1A0681B
:101430004FF48065B0F5004F01D0A8420FD120686D
:10144000066826F0400606606068984207D1A068EA
:10145000A84204D100920B460022012103E0009231
:101460000B4600228021204600F018F8002804D006
:10147000606D40F0200060650320F8BD38B50B4674
:10148000009204460022802100F008F8002804D0D1
:10149000606D40F020006065032038BD2DE9F0410B
:1014A0001D4617460E460446DDF8188008E0681C05
:1014B00006D0FFF7F5F8A0EB0800A8420BD255B113
:1014C0002068806836EA000030D00020B842EED1B3
:1014D0000020BDE8F0812068416821F0E001416012
:1014E0006068B0F5827F0BD1A068B0F5004F02D0E4
:1014F000B0F5806F04D12068016821F040010160DF
:10150000A06AB0F5005F09D12068016821F400519C
:1015100001602068016841F400510160012084F8F5
:101520005100002084F850000320D2E70120CDE7CD
:101530007047FFF7BBB810B590B028216846FEF79A
:10154000F8FD14210AA8FEF7F4FD02200090012006
:10155000049010200024059007946846FFF70AFACB
:101560000F20CDE90A040C940D9400210AA80E94D2
:10157000FFF734F910B010BD0D48016841F00101CA
:10158000016041680B4A1140416001680A4A1140FC
:101590000160016821F480210160416821F4FE01AD
:1015A00041604FF41F0181600449C0030860704727
:1015B000001002400000FFF8FFFFF6FE08ED00E01B
:1015C000FEE700000FB4084B10B504A902AA039867
:1015D00000F02CF8044602A9002000F0D1F82046C3
:1015E00010BC5DF814FB0000811700080907090E04
:1015F000002804DB00F1E02080F80014704700F0C0
:101600000F0000F1E02080F8141D704702E008C8C8
:10161000121F08C1002AFAD170477047002001E06C
:1016200001C1121F002AFBD1704700002DE9FF4FB6
:1016300089B09B460446002506E025280BD05A4673
:101640000B999047641C6D1C20780028F5D10DB0D3
:101650002846BDE8F08F0027B8460122474900E040
:10166000074314F8013F203B02FA03F00842F7D188
:1016700020782E2819D114F8010F47F004072A28E2
:101680000ED06FF02F022078A0F1300109290CD87C
:1016900008EB880102EB410100EB0108641CF2E752
:1016A0000A98641C50F8048B0A9020780028CED049
:1016B000642808D0692806D075281ED05A460B9990
:1016C00090476D1C58E00A994FF00A0901C90A9128
:1016D000002802DA40422D2102E0390504D52B21F1
:1016E0008DF82010012103E0F90704D02021F7E74D
:1016F0008A4608AE0DE00021FAE70A994FF00A0980
:1017000001C90A91F7E74946FEF71EFD303106F898
:10171000011D0028F7D1ADEB060000F12009780784
:1017200001D44FF00108C84502DDA8EB090000E034
:1017300000208046002706E008A85A46C05D0B99A5
:1017400090476D1C7F1C5745F6DB04E030205A465D
:101750000B9990476D1CB8F10001A8F10108F5DC68
:1017600005E016F8010B5A460B9990476D1CB9F12C
:101770000001A9F10109F4DC641C65E709280100F6
:101780000A68531C0B6010707047000086B0FEF7AB
:1017900095FFFFF7D0FE0026334C00960196029687
:1017A0000396A06940F00400A061A06900F0040065
:1017B0000490A06940F00800A061A0692B4D00F0E2
:1017C00008000490012210212846FEF763FF102034
:1017D00000900120CDE901060220039069462846C9
:1017E000FEF768FE606940F00100606160690022F8
:1017F00000F00100009011460E20FEF7BDFF0E2004
:10180000FEF7ACFFFFF74EFDFFF768FD1849142205
:1018100001F16C00FFF778FB154864231422154989
:101820001430FFF7E7FB134C4FF47A76641E12A1D5
:1018300022781048FFF7C6FE002210212846FEF746
:1018400029FF0B48642314220A491430FFF7D2FB06
:10185000012210212846FEF71DFF2078401C207031
:101860003046FEF715FEE2E7001002400008014096
:101870002800002001000020477569206C616E205F
:101880007468753A202564200A00000000000000FA
:10189000000000000102030406070809BC18000844
:1018A00000000020280000000C160008E4180008C2
:1018B00028000020080500001C160008004D617378
:1018C0007465722073656E64000000000000000003
:1018D00000000000010000001000000000000000F7
:0418E0000024F400EC
:04000005080000ED02
:00000001FF
