:020000040800F2
:10000000B00D002001010008811C0008B91A000889
:10001000091C000819030008CB3400080000000088
:10002000000000000000000000000000811F000828
:1000300053030008000000007F1F0008831F000812
:100040001B0100081B0100081B0100081B01000820
:100050001B0100081B0100081B0100081B01000810
:100060001B0100081B0100081B0100081D030008FC
:100070001B0100081B0100081B0100081B010008F0
:100080001B0100081B0100081B0100081B010008E0
:10009000553400081B0100081B0100081B01000863
:1000A0001B0100081B0100081B0100081B010008C0
:1000B0001B0100081B0100081B0100081B010008B0
:1000C0001B0100081B0100081B0100081B010008A0
:1000D0001B0100081B0100081B0100081B01000890
:1000E0001B0100081B0100081B010008DFF80CD0F1
:1000F00000F03CF8004800470D350008B00D002026
:100100000648804706480047FEE7FEE7FEE7FEE7B1
:10011000FEE7FEE7FEE7FEE7FEE7FEE7EB1F00086F
:10012000ED00000840EA01039B0703D009E008C97D
:10013000121F08C0042AFAD203E011F8013B00F8AC
:10014000013B521EF9D27047D2B201E000F8012BF8
:10015000491EFBD270470022F6E710B513460A4647
:1001600004461946FFF7F0FF204610BD064C074D28
:1001700006E0E06840F0010394E807009847103477
:10018000AC42F6D3FFF7B6FF98350008B835000843
:1001900070B58C1810F8015B15F0070301D110F849
:1001A000013B2A1106D110F8012B03E010F8016B76
:1001B00001F8016B5B1EF9D12B0705D40023521EF9
:1001C0000DD401F8013BFAE710F8013BCB1A921C61
:1001D00003E013F8015B01F8015B521EF9D5A1425F
:1001E000D8D3002070BD000070B504460068816857
:1001F000C943C9071CD1816821F00101816000F069
:1002000099FC05460FE000BF00F094FC401B02285B
:1002100009D9A06A40F01000A062E06A40F0010035
:10022000E062012070BD20688068C043C007EBD049
:10023000002070BD10B50146406A826A12F0500F6E
:1002400005D0006A026BBDE8104008461047816A7D
:1002500041F40071816201688968C1F34241072954
:100260000CD1017B51B9816A21F480718162816A6C
:10027000C90403D4816A41F00101816200F0EAF807
:1002800010BD10B5406A816A41F040018162C16AC7
:1002900041F00401C16200F0DFF810BD10B5406A02
:1002A00000F0D9F810BD0000F8B50026044600960D
:1002B00000688168C943C90728D0816841F00101FD
:1002C0008160134813490068B0FBF1F000E0401E64
:1002D00000900028FBD100F02DFC054611E000BF86
:1002E00000F028FC401B02280BD9A06A40F0100047
:1002F000A062E06A40F00100E06284F8246001201E
:10030000F8BD20688068C043C007E9D10020F8BD6F
:100310006800002040420F00FEE70000014800F0A6
:10032000F7B90000A801002030B590F84050012432
:10033000AC40C56B6C60046863604368102B036855
:1003400003D099600068C26030BD9A600068C160E7
:1003500030BD704770470000F8B50024009490F855
:1003600024202546012A12D0012280F824204A6840
:100370001F23072A0DD20668776B521E02EB8202FA
:1003800093409F430B6893401F43776319E002201B
:10039000F8BD06680D2A0AD2376BD21F02EB820223
:1003A00093409F430B6893401F43376309E0F76A0C
:1003B0000D3A02EB820293409F430B6893401F4328
:1003C000F7620A68072306680A2A0AD3F7680A3A16
:1003D00002EB420293409F438B6893401F43F760B8
:1003E00008E0376902EB420293409F438B689340D9
:1003F0001F4337610A68102A01D0112A20D1124BFD
:1004000002689A4217D193681B0219D4936843F487
:10041000000393600968102912D10C490C4A09683D
:10042000B1FBF2F101EB8101490000E0491E0091AE
:100430000029FBD104E0816A41F02001816201249E
:1004400080F824502046F8BD0024014068000020B8
:1004500040420F0070477047704700002DE9F0419F
:100460004FF0000704003D467ED0A06A002628B960
:10047000E66284F82460204600F07EF82046FFF70C
:10048000B3FEA16AC90600D420B1A06A40F01000F2
:10049000A06269E0A16A21F4885141F00201A162E1
:1004A0006268E169237B0A4347EA43010A43A16882
:1004B0004FF48077B94209D0012907D05FF00001DD
:1004C00094F814C0BCF1010F02D00AE03946F7E7F6
:1004D000F3B1A36A43F02003A362E36A43F001038C
:1004E000E3622368D3F804C02CF4694C4CEA010C95
:1004F000C3F804C021688B68DFF870C003EA0C03FE
:1005000013438B60A168B9420BD0012909D00CE0DC
:10051000DFF85CC0A3690CEB43330B4343F4006189
:10052000DFE7218A0D05A5F580152168CB6A23F444
:1005300070032B43CB62216889680E4B19409142AE
:1005400008D1E662A16A21F0020141F00101A16235
:10055000BDE8F081A06A20F0020040F01000A06227
:10056000E06A40F00100E0620120F1E7FDF7E1FF01
:1005700000E0FFFFFE0E1FFF70B586B000250646A7
:1005800000950195029503950068194988422DD17F
:100590001849886940F400708861886900F4007027
:1005A0000490886940F0040088618869694600F019
:1005B000040004900320009001900F4800F0B8F967
:1005C0000F4C0E48C4E900058020C4E902504000E9
:1005D0002061800060612020C4E90605204600F00B
:1005E00041F908B1FFF7B6FE3462666206B070BD2D
:1005F00000240140001002400008014008000240B1
:10060000A80100202DE9F047894604463B490068CF
:100610003B4F0E1D9046884201D0B84207D130684A
:1006200010F4702F03D001252846BDE8F08794F818
:10063000240001280CD0012084F824002046FFF774
:1006400033FE05004FF0000004D084F82400EBE7EF
:100650000220EAE7A16A40F60162914341F4807109
:10066000A1622168B94218D1326812F4702F14D0F7
:10067000A16A41F48011A1623168490505D5A16ADA
:1006800021F4005141F48051A162A16AC9040AD544
:10069000E16A21F00601E16206E0A26A22F480121A
:1006A000A2624968E9E7E06284F82400216A1548FB
:1006B0008862216A1448C862216A14480863216864
:1006C0006FF0020008602068816841F480718160E9
:1006D000216843464A464C31206A00F0F1F8206810
:1006E0008168C1F342410729816803D041F4801138
:1006F000816099E741F4A001FAE70000002401407D
:1007000000280140350200089D020008830200080D
:100710002DE9F05FC16B0C6801680B68D0F840C030
:10072000042202FA0CF2494DDFF824A1494E4A4F47
:10073000DFF828B1DFF828E122422CD05A072AD569
:100740000A68920603D40A6822F004020A6001686B
:10075000A94201D1042219E0514501D1402215E0FE
:10076000B14202D14FF4806210E0B94202D14FF49D
:1007700080420BE0594502D14FF4802206E07145DA
:1007800002D14FF4800201E04FF080622F49083916
:100790004A60C16A3BE04FF0020808FA0CF818EA18
:1007A000040F4FF000094FF0010235D05FEA837863
:1007B00032D50B689B0605D40B6823F00A030B6047
:1007C00080F821200168A94201D1022219E0514597
:1007D00001D1202215E0B14202D14FF4007210E0A5
:1007E000B94202D14FF400520BE0594502D14FF407
:1007F000003206E0714502D14FF4001201E04FF0E3
:100800000072124908394A6080F82090816A0029F4
:100810001AD0BDE8F05F0847082505FA0CF5254217
:1008200012D01B0710D50B6823F00E030B6090F855
:100830004010C36B02FA01F15960826380F82120F5
:1008400080F82090016BE2E7BDE8F09F08000240CD
:100850001C000240300002404400024058000240A8
:100860006C00024030B528B308C81349142219445B
:10087000B1FBF2F18900C163104981630221417724
:100880001A6843F6F0718A43D0E900142143D0E995
:1008900002452C432143046921434469214384696F
:1008A00021431143196000214163012242770177FE
:1008B000084630BD012030BDF8FFFDBF00000240FA
:1008C00070B5044690F82000002501280CD00120C6
:1008D00084F8200094F821600020012E06D084F8CE
:1008E00020000225284670BD022070BD022684F833
:1008F0002160A0632068066826F001060660204695
:10090000FFF712FDE06A00282068016802D041F07C
:100910000E0106E021F0040101602068016841F049
:100920000A0101602068016841F001010160D9E716
:100930002DE9F84FDFF8B891002409F1040A0AF113
:10094000040B23460F270BF1040EC9E00125A54037
:100950002A40AA427DD1674ED1F804C0ACEB06080C
:10096000B44532D014DCBCF1030F3AD009DCBCF141
:10097000000F2AD0BCF1010F1CD0BCF1020F31D105
:100980001DE0BCF1110F17D0BCF1120F2AD119E0F4
:10099000B8F5881F19D006DCB8F5803F15D0B8F53A
:1009A000801F1FD111E0B8F5001F0ED0B8F5041F4D
:1009B00018D10AE0CB6815E0CB681B1D12E0CB68AC
:1009C00008330FE0CB680C330CE08B682BB1012BA4
:1009D0004FF0080303D0456104E0042302E0056101
:1009E00000E00023FF2A01D8064601E000F10406DA
:1009F0004FEA840501D9A5F12005D6F8008007FA51
:100A000005FC28EA0C0803FA05F548EA0508C6F8CB
:100A100000804D68ED0062D5374DAE6946F00106A5
:100A2000AE61AD6924F0030605F001050095334D74
:100A300006EB050CDCF80850A607360F07FA06F897
:100A400025EA0805DFF8B880404503D14FF00008DB
:100A500017E044E0DFF8AC80404502D14FF00108D8
:100A60000FE0DFF8A480404502D14FF0020808E013
:100A7000DFF89880404502D14FF0030801E04FF0C5
:100A8000040808FA06F848EA0508CCF808804D681A
:100A9000D9F80060ED034D4601D5164300E09643BA
:100AA0002E604D68DAF80060AD03554601D5164357
:100AB00000E096432E604D68DBF80060ED025D4675
:100AC00001D5164300E096432E604D68DEF80060C5
:100AD000AD02754601D5164300E096432E60641CB6
:100AE0000D682A46E5407FF431AFBDE8F88F00007D
:100AF00000040140000011100010024000000140FD
:100B000000080140000C01400010014000140140A9
:100B10008068084000D001207047C26821EA0203C3
:100B20000A4043EA0241016170470AB1016170471E
:100B30000904FBE701488068704700005C00002062
:100B40000248816802781144816070475C0000208F
:100B5000074810B5016841F010010160032000F062
:100B600075F8002000F006F800F024F8002010BD11
:100B70000020024070B50D4D04464FF47A7128787C
:100B8000B1FBF0F00A490968B1FBF0F000F080FF1A
:100B900048B9102C07D200222146501E00F036F82A
:100BA00000206C6070BD012070BD00005C00002062
:100BB000680000200C4808B5816941F0010181619D
:100BC000816901F001010091C16941F08051C16169
:100BD000C06900F0805000900448416821F0E06155
:100BE00041F00071416008BD00100240000001406A
:100BF000002809DB00F01F0201219140400980001C
:100C000000F1E020C0F8001170470000F0B40E4B76
:100C10001B680C46C3F30223C3F10705042D00D95A
:100C20000425191D072901D2002300E0DB1E01263F
:100C300006FA05F1491E214099409E40761E164055
:100C40003143F0BC02F042BC0CED00E0064900F07C
:100C5000070208684FF6FF03184040EA0220034AE3
:100C600010430860704700000CED00E00000FA053A
:100C700010B50C0607D501F0070101EB810100EB6F
:100C8000C100283005E001EB810100EBC10000F557
:100C9000B47099B232B1012202730181190C418101
:100CA000002010BD00220273C180F9E7704701EBFC
:100CB000810200EBC202D0F8E802D26B01F0D5BB92
:100CC00001EB810200EBC202D0F8E802D2F87C21ED
:100CD00001F02EBC70B504460B0601F0070000EBD6
:100CE000800104EBC1014FF001024FF0000503D574
:100CF00081F82920283103E081F8695101F5B471A8
:100D0000087094F8A802012808D084F8A822206866
:100D100002F03EF884F8A852002070BD022070BD99
:100D200070B5044601F00F006268904201D90120BD
:100D300070BD0B0601F0070000EB800104EBC10160
:100D40004FF001024FF0000503D581F8292028312A
:100D500003E081F8695101F5B4718D70087094F861
:100D6000A802012808D084F8A822206802F0ADF873
:100D700084F8A852002070BD022070BD2DE9F05FFC
:100D800004685FEA424C0B788D69B4F850C04FF0AC
:100D900000064BF68F7948F2800A48F68F7B48F2BE
:100DA000C00E4FF480672AD54FF0020808EBC30845
:100DB000C44407EB4C07E45BC4F30904A54203D326
:100DC0002D1B8D6101D00BE08E61066836F8235033
:100DD00005EA090585F4005545EA0A0526F8235079
:100DE000520609D50D78036833F8252002EA0B0274
:100DF00042EA0E0223F8252084B30A8929E04FF045
:100E0000060808EBC308C44407EB4C07E45BC4F3D3
:100E10000904A54203D32D1B8D6101D00BE08E6127
:100E2000066836F8235005EA090585F4005545EAB9
:100E30000A0526F82350520609D40B78056835F8C0
:100E4000232002EA0B0242EA0E0225F823202CB1ED
:100E50004A8949690068234602F006FB2046BDE83E
:100E6000F09F2DE9F05F05460C4600685FEA426C92
:100E700016462278A369B0F850C04FF0000148F63A
:100E80008F774CF280094FF6FF7B4FF4004E4FF402
:100E9000806A6CD54FF0020808EBC208E0440AEB08
:100EA000480C30F80C00C0F30900834211D91B1A1A
:100EB000A3610FD0730407D52E6836F822303B406B
:100EC00043EA090326F8223094F82420012A08D0A6
:100ED000C6E0A16111462846FFF7E9FE70046CD414
:100EE000BEE0626902446261E2690244E261236930
:100EF000226A9A4202D31846111A03E084F8241099
:100F00000AB110462162617811B1012923D02BE08A
:100F10002968B1F850201144227801EB021101F246
:100F2000044148B13E280FD84208C30700D0521CE4
:100F30000BEA82220A8017E00A8822F4F8420A802B
:100F40000A8842F40042F5E74209C30600D1521E66
:100F50004EEA8222EEE72968B1F850201144227847
:100F600001EB0211A1F8040483B2228974E04FF06E
:100F7000060808EBC208E0440AEB480C30F80C0005
:100F8000C0F30900834211D31B1AA3610FD073046D
:100F900007D42E6836F822303B4043EA090326F88E
:100FA000223094F82420012A11D059E0A161114681
:100FB0002846FFF77CFE700452D42278296831F865
:100FC0002200384040EA090021F8220048E0626926
:100FD00002446261E2690244E2612369226A9A4240
:100FE00003D31846111A216204E00AB110462162A7
:100FF00084F824106278296812B1012A22D029E0ED
:10100000B1F850201144227801EB021101F20C4199
:1010100048B13E280FD84208C30700D0521C0BEA43
:1010200082220A8016E00A8822F4F8420A800A889E
:1010300042F40042F5E74209C30600D1521E4EEACF
:101040008222EEE7B1F850201144227801EB021120
:10105000A1F80C04628983B26169286802F022FA5F
:101060002278296831F8220048F6BF73184080F0D2
:10107000300048F28003184321F822000020BDE828
:10108000F09F2DE9F04104460F0601F0070000EB48
:10109000800104EBC1014FF001064FF0000503D5BC
:1010A00081F82960283103E081F8695101F5B471B4
:1010B00008700A61CB704A7802B1C881022B00D156
:1010C0000D7194F8A802012809D084F8A86220685C
:1010D00001F030FD284684F8A852BDE8F0810220D6
:1010E000FBE770B50C4601F0070505EB850100EB49
:1010F000C101C1E95F230022C1F8842181F869217F
:1011000081F8685101F5B4716207006801F032FF9F
:10111000002070BD70B504460D4601F007006168FF
:10112000884201D9012070BD29064FF000064FF01A
:10113000010207D500EB800104EBC10181F82920F1
:10114000283107E005EB850104EBC10181F86961F5
:1011500001F5B4718A70087094F8A802012807D0CC
:1011600084F8A822206801F0ECFE680702D006E0AF
:10117000022070BD04F52C71206801F0A4FE84F8F3
:10118000A862002070BD70B50C4601F0070505EBA4
:10119000850100EBC101C1E90F23012281F84C2038
:1011A0008B6400234B6481F8292001F8285F6207D3
:1011B000006801F0DFFE002070BD1FB50446006826
:1011C00002F04EF9000402D5204600F05AFD2068D6
:1011D00002F046F940050CD5206830F8441F21F490
:1011E00080610180204600F01FF90021204600F0B8
:1011F00036F9206802F034F9400405D5206830F84B
:10120000441F21F480410180206802F029F9800404
:1012100005D5206830F8441F21F400510180206872
:1012200002F01EF9C00414D5206830F8401F21F0E8
:1012300004010180206830F8401F21F0080101807E
:10124000204600F004F9206830F8441F21F4805152
:101250000180206802F004F900053ED522680020D4
:10126000694632F8203021F81030401CC0B20828FE
:10127000F7D332F8400F40F001001080206830F8BA
:10128000402F22F0010202802068B0F8442052056D
:10129000FBD530F8442F22F48062028000202368BE
:1012A00031F8102023F82020401CC0B20828F6D3C3
:1012B000206830F8401F41F008010180206830F8B4
:1012C000441F21F400610180206830F8401F41F084
:1012D00004010180204600F0F7F8206802F0C0F811
:1012E000800508D5206830F8441F21F40071018082
:1012F000204600F0B0F8206802F0B2F8C00505D52D
:10130000206830F8441F21F4807101801FBD000067
:101310002DE9F04186B0040004D094F8A90200251C
:1013200020B108E0012006B0BDE8F08184F8A852A1
:10133000204600F05BF8032084F8A902206801F041
:10134000BBFD04F11001142288466846FEF7EAFE50
:1013500094E80F0001F01AFD0226D0BB002120689E
:1013600002F098F8002001270FE000BF00EB800199
:1013700004EBC10181F8297001F8280FC881CD70F4
:101380000D614D61401CC0B28D6161688142EDD834
:10139000002011E000EB800104EBC10181F86951EC
:1013A00081F8680181F86B51C1F87851C1F87C511E
:1013B000401CC0B2C1F8805161688142EAD8142251
:1013C00041466846FEF7AEFE94E80F0001F06BFD63
:1013D00010B184F8A962A5E784F8245084F8A972B2
:1013E000206801F05EFD00209DE7000008B5006860
:1013F0000B49884212D10B48C16941F40001C16117
:10140000C069002200F40000009011461420FFF78C
:10141000FDFBBDE808401420FFF7EABB08BD000053
:10142000005C00400010024070B504468068012551
:10143000022801D0FEF78EFF2946D4F8E80201F019
:1014400050F9D4F8E802BDE8704001F00CB9D0F8CA
:10145000E80201F030B9D0F8E80201F036B910B571
:10146000044690F8A80201280BD0012084F8A802B5
:1014700084F82410206802F00FF8002084F8A802F5
:1014800010BD022010BDD0F8E82200F52C711046E6
:1014900001F033B910B5044690F8A802012810D025
:1014A000012084F8A802206801F0CBFF012120462A
:1014B000FFF7FCFB206801F0F2FC002084F8A80292
:1014C00010BD022010BD000010B50446D0F8E8029F
:1014D00001F052F9A069002804D00348016841F0E6
:1014E0000601016010BD000010ED00E02DE9F84399
:1014F00005460078354CC00754D0E0690026C0008E
:1015000008D4E06940F08050E061E069012600F015
:10151000805000902E480168C90512D401688046A9
:1015200041F480710160FFF705FB074605E000BF4D
:10153000FFF700FBC01B642823D8D8F80000C005C3
:10154000F6D5206A10F4407021D0A98801F44071CA
:1015500081421CD0206A1F49012220F440700A6099
:1015600000220A602062C00711D0FFF7E3FA0746A5
:1015700041F2883808E000BFFFF7DCFAC11B4145A3
:1015800002D90320BDE8F883206A8007F4D5206AD9
:10159000696820F44070084320621EB1E06920F0C1
:1015A0008050E0612878800705D56068A96820F43C
:1015B0004040084360602878C00605D56068E96847
:1015C00020F48000084360600020DBE70010024048
:1015D00000700040400442422DE9F0470F460500EC
:1015E00061D0434E306800F00700B84209D230683D
:1015F00020F0070038433060306800F00700B84240
:1016000051D128683B4C810712D5400703D560684B
:1016100040F4E06060602878000703D5606840F41B
:10162000605060606068A96820F0F0000843606066
:101630002878C00728D06868012810D021680228BF
:1016400010D0890700292EDA616821F003010143D7
:101650006160FFF76FFA804641F288390DE021683A
:101660008903EFE78901EDE7FFF764FAA0EB0801D2
:10167000494502D90320BDE8F0876068696800F039
:101680000C00B0EB810FEFD1306800F00700B842DA
:101690000BD9306820F0070038433060306800F024
:1016A0000700B84201D00120E5E72878400705D5BA
:1016B0006068E96820F4E06008436060287800070B
:1016C00006D56068296920F4605040EAC100606076
:1016D00000F018F86168084AC1F30311515CC84072
:1016E0000649086006480068FFF744FA0020C2E790
:1016F00000200240001002408835000868000020E9
:101700006000002012A185B00FC98DE80F0014A061
:10171000144A006804905168134801F00C03042B2C
:1017200010D0082B0ED1C1F38343C9031DF8030069
:101730000AD5516804AAC1F34041515C0A4A50439A
:10174000B0FBF1F005B0704708494843FAE70000E4
:1017500002030405060708090A0B0C0D0E0F1010F2
:10176000010200000010024000127A0000093D0052
:101770002DE9F84F040070D02078C04DC00749D043
:101780006868C0F38100012807D06868C0F3810051
:10179000022809D16868C00306D52868800339D5B6
:1017A00060680028E7D035E06068B0F5803F0BD076
:1017B00010B1B0F5A02F11D0286820F48030286037
:1017C000286820F4802002E0286840F480302860F7
:1017D000606890B1FFF7AEF906460AE0286840F469
:1017E00080202860F0E700BFFFF7A4F9801B642881
:1017F00073D828688003F7D50CE0FFF79BF90646FD
:1018000005E000BFFFF796F9801B6428F0D8286830
:101810008003F7D420789A4E80074FF001094FF0EB
:10182000000839D5686810F00C0F07D06868C0F35D
:101830008100022809D16868C00306D4286880079F
:1018400014D52069012808D110E02069B0B1C6F88C
:101850000090FFF76FF9074605E00AE1FFF76AF924
:10186000C01B0228C4D828688007F7D5286861699A
:1018700020F0F80040EAC10028600DE0C6F80080C2
:10188000FFF758F9074604E0FFF754F9C01B022898
:1018900023D828688007F7D4207800072CD579480A
:1018A000A169D9B1C0F80090FFF744F9074604E0F8
:1018B000FFF740F9C01B02280FD8686A8007F7D5E8
:1018C00071484FF4FA510068B0FBF1F0009000BF8E
:1018D0000098411E0091FAD20EE080E0C0F800802E
:1018E000FFF728F9074604E0FFF724F9C01B022898
:1018F00075D8686A8007F7D42078400760D5E86912
:101900000027C00008D4E86940F08050E861E86929
:10191000012700F0805000905C480168C90513D48D
:101920000168834641F480710160FFF703F9824644
:1019300006E000BFFFF7FEF8A0EB0A0064284ED8CF
:10194000DBF80000C005F5D5E06801280AD008B131
:10195000052813D0286A20F001002862286A20F0A8
:10196000040002E0286A40F001002862E06841F2C9
:10197000883B98B1FFF7DEF882460BE0286A40F01A
:1019800004002862EEE700BFFFF7D4F8A0EB0A01DD
:1019900059455AD8286A8007F6D50CE0FFF7CAF8EF
:1019A000824605E0FFF7C6F8A0EB0A0159454CD87E
:1019B000286A8007F6D41FB1E86920F08050E861FA
:1019C000E06988B36968C1F38101022944D0022823
:1019D000C6F8608004D0FFF7ADF8044638E034E084
:1019E000FFF7A8F8074604E0FFF7A4F8C01B022899
:1019F0002BD828688001F7D4206AB0F5803F05D144
:101A00006868A16820F4003008436860D4E90801E0
:101A10000843696821F4741108436860C6F860904F
:101A2000FFF788F8044606E025E000BFFFF782F8DC
:101A3000001B022809D828688001F7D51BE000BFE9
:101A4000FFF778F8001B022802D90320BDE8F88FC1
:101A500028688001F4D40EE00128F7D06868226A73
:101A600000F48031914204D1616A00F47010884220
:101A700001D00120EAE70020E8E700000010024062
:101A80000000424280044242680000200070004092
:101A900010B5401EB0F1807F01D3012010BD4FF082
:101AA000E02460610F21601701F010FD0020A061AB
:101AB00007202061002010BDFEE70000F0B50023E4
:101AC0000A24302537261F4611E000BFB4EB107FF3
:101AD00002D905EB107C01E006EB107C01F813C085
:101AE00001EB430C00015B1C8CF80170DBB29342EC
:101AF000ECD3F0BDFEB500241148009401940F49C9
:101B00000294016089158160012505730475022620
:101B100006614FF460214460C161FEF79FFC07201D
:101B20000094CDE9015069460548FEF715FCCDE962
:101B3000005669460248FEF70FFCFEBD0024014036
:101B40007801002070B586B000241C4800940194F0
:101B500002940394816941F010018161816901F06F
:101B600010010491816941F020018161816901F0D6
:101B700020010491816941F0040181618069104E66
:101B800000F004004FF4005504900022294630462E
:101B9000FEF7CBFF0220CDE9024000950125694602
:101BA00001953046FEF7C4FE04208DE831006946F9
:101BB0000448FEF7BDFE06B070BD000000100240F4
:101BC000001001400008014010B500220B490C48EC
:101BD00000F024FC08B1FEF7BDFB0A49084800F0FC
:101BE000F1FD08B1FEF7B6FB054800F041FE002804
:101BF00003D0BDE81040FEF7ADBB10BD0C000020C7
:101C0000EC01002070000020FEE700002DE9F84301
:101C100004211848FEF77CFF174E002510B33570DD
:101C2000154F4FF00A08BF1CCDF800806FF009096E
:101C300038884B4640F6AC72002101F09BFC04460C
:101C4000CDF8008078884B4640F69A62002101F07A
:101C500091FC391D32780A704C708870CD700D710E
:101C6000BDE8F8830120307041030448FEF755FFBA
:101C7000D6E70000000801400000002000100140ED
:101C800070472DE9F84F044640F68F7B48F60F7AEF
:101C90004FF002094FF4806868E1B0F8441011F089
:101CA0000F0638D030F8267039047ED530F826106B
:101CB00001EA0B0141F0800120F8261006EB8600B6
:101CC00004EBC00595F8740105F5B47500286DD0D6
:101CD000E87802286BD02A78216831F8220048F68B
:101CE0008F73184048F2C003184321F82200297866
:101CF000206830F82120B0F8503052047DD509EB2F
:101D0000C1015A1808EB4201415A8905890D009119
:101D100074D02A89D2E0C9062DD4018801EA0A01CB
:101D200041F400410180206804F12805B0F85030EA
:101D30002A7809EBC2015A1808EB4201405AC0F355
:101D400009006064E16B0844E06300212046FEF76F
:101D5000AEFF94F8240000289ED0A86900289BD1EB
:101D600094F8240040F080012068A0F84C10002076
:101D700084F82400FAE0018804F5B4750A0521D539
:101D8000B0F850302A78062101EBC2015A1808EB4E
:101D90004201405A04F52C71C0F30903EB61EA8853
:101DA000206801F061FB216802E0A2E062E072E0DD
:101DB000088800EA0B0040F0800008802046FFF70A
:101DC00062FBD3E00904D5D5018801EA0B0141F09B
:101DD000800101802068B0F850202B78062101EBAB
:101DE000C3010A4408EB4201405A83059B0DEB6195
:101DF00010D0696971B1EA8801E053E051E02068D0
:101E000001F032FBE96968690844686100212046F5
:101E1000FEF756FF2068B0F850100844296900F218
:101E20000C4051B13E2910D84A08C90700D0521CB5
:101E30004FF6FF7101EA82210FE0018821F4F84199
:101E40000180018841F4004107E04A09C90600D138
:101E5000521E4FF4004141EA82210180206801882E
:101E60004BF68F72114081F4405148F280021143C9
:101E700001807BE02068B0F850102A78062303EB3D
:101E8000C2020A4408EB4201415A8905890D0091BA
:101E900018D0EA8812E03A4629462046FEF76EFF3F
:101EA00000900FE0062202EBC1015A1808EB420134
:101EB000415A8905890D009104D06A896969009B9E
:101EC00001F0D2FAE96900980844E861696900986C
:101ED00008446861A86918B129690098814204D949
:101EE00029782046FEF7ECFE03E02946206801F041
:101EF00041F838063AD5226806EB860004EBC001AB
:101F000032F8260000EA0A0040F4004022F82600D9
:101F100091F82B002831022801D1F80522D422683B
:101F2000B2F850300D7809EBC500034408EB4300CC
:101F3000105A8A69C0F3090082420CD9121A8A61C8
:101F40000BD04A6902444A61CA691044C8612068DA
:101F500001F010F80AE000208861E9B22046FEF79F
:101F6000A6FE03E03A462046FEF77BFF2068B0F865
:101F7000441009043FF591AE0020BDE8F88F70478A
:101F80007047FEF7DDBD30B593B028216846FEF7F7
:101F9000E2F814210AA8FEF7DEF8002401200F94CD
:101FA00010941194010412948DE81300049000051C
:101FB000CDE90810022507956846FFF7D9FB0F20E9
:101FC000CDE90A056802CDE90C4001210AA80E946A
:101FD000FFF702FB12200F9068031190000212908D
:101FE0000FA8FFF783FA13B030BD704710B5D0F8D3
:101FF000B42252689047002010BD134610B50A461F
:10200000002100F027FB002010BD134610B50A4642
:10201000002100F0BAFB002010BD10B5044680215D
:1020200000F098FB2046BDE81040002100F092BB74
:1020300010B505210023C0F894121A46194600F085
:1020400009FB002010BD10B50223C261C0F8943214
:10205000026213460A46002100F097FB002010BDE3
:1020600010B504210023C0F894121A46194600F056
:102070008CFB002010BD000010B50A46024903A0E9
:1020800000F0E2F8004810BDB004002048494420A8
:10209000436F6E6669670000122008800048704731
:1020A0002C00002010B50A46024903A000F0CCF82D
:1020B000004810BDB004002048494420496E7465B2
:1020C0007266616365000000042008800048704764
:1020D0002800002010B50A46024903A000F0B4F819
:1020E000004810BDB004002053544D6963726F6501
:1020F0006C656374726F6E696373000010B50A4695
:10210000024903A000F0A0F8004810BDB004002070
:1021100053544D33322048756D616E20696E74657D
:10212000726661636500000010B51A2008800A48D5
:102130000168001D0468001D0068081809D0082205
:102140000649FFF7BBFC0549042210312046FFF782
:10215000B5FC0248801E10BDE8F7FF1F42000020BA
:10216000F8B504460020ADF8000048880D46010A85
:10217000082948D2DFE801F04704091747473C45E2
:10218000D4F8B012207C0A6819E0207C02260028CE
:10219000D4F8B40205D0C16A684688470146467043
:1021A0003EE0816AF8E7C0B206282CD2DFE800F0F2
:1021B000030A1014181CD4F8B002426805E06946FE
:1021C00090471CE0D4F8B0028268E2B1207CF6E7C8
:1021D000D4F8B002C268F8E7D4F8B0020269F4E7B4
:1021E000D4F8B0024269F0E7D4F8B0028269ECE7B3
:1021F000207C40B9D4F8B402416B68468847014658
:102200000EE0207C20B129462046FFF706FFF8BDEE
:10221000D4F8B402016B684688470146072048702D
:10222000BDF8000048B1EA8852B1824200D90246A6
:10223000ADF800202046FFF706FFE8880028E6D129
:102240002046FFF70DFFF8BD70B5002300281ED013
:102250000446002502E06D1CEDB2641C2678002EB9
:10226000F9D1022404EB450414801278CA545B1C93
:102270000322CA5400245B1C06E0CA545B1CDAB279
:102280008C54521CD3B2401C0278002AF5D170BD88
:1022900001004FF0000004D0012901D0022901D033
:1022A0000220704701207047D0F8B8020021017366
:1022B0000846704770B50446812100F0CDF800252E
:1022C000E562D4F8B80218B100F02FFCC4F8B85297
:1022D000002070BD0A2101800048704720010020C5
:1022E0002221018000487047A8000020222101809F
:1022F00000487047CC000020222101800048704730
:10230000F000002010B5044604230322812100F0D0
:1023100095F90120E062102000F008FCC4F8B80232
:1023200018B100210173084610BD022010BD10B580
:10233000134690F89C42D0F8B822032C07D1147BA6
:102340002CB9012414730A46812100F01EFA0020E2
:1023500010BD000038B503460022D0F8B802ADF831
:10236000002014460A7812F0600216D0202A4AD1C2
:102370004A78022A0ED0032A06D00A2A06D00B2A4F
:1023800041D18978016042E001222BE04988090AA5
:1023900041603CE00122011D25E04A7832B1062A65
:1023A0000BD00A2A23D00B2A2DD128E093F89C02C7
:1023B000032828D10222694615E048882222B2EB80
:1023C000102F05D1CA884A2A00D94A22124809E0AA
:1023D0002122B2EB102F16D10F48CA881838092ACB
:1023E00000D9092201461846FFF72DFE0FE093F8A9
:1023F0009C22032A07D1012200F10801F3E793F898
:102400009C22032A05D01846FFF707FE0224204627
:1024100038BD89788160FAE72C01002010B580B1C1
:10242000D0F8B43213B10023C0F8B43209B1C0F807
:10243000B012012180F89C12027000F0BBF800205D
:1024400010BD022010BD10B5D0F8C002FEF768FC28
:10245000BDE81040FFF71CBF10B5D0F8C002FEF772
:1024600039FCBDE81040FFF713BF2DE9F0411746D6
:10247000044651B1D4F8B40242691AB194F89C02EE
:10248000032851D00220BDE8F081D4F89432002511
:1024900004F11400022B03D0042B3AD0C3B33CE068
:1024A000D0E903639E4207D9F11AC1608AB2394666
:1024B0002046FFF7AAFD12E08068B0FBF3F103FBB2
:1024C000110199B9984211D3D4F8981288420DD2CB
:1024D000002211462046FFF798FDC4F898520023C9
:1024E0001A461946204600F0B5F816E0D4F8B402B2
:1024F000C16829B194F89C02032801D1204688477D
:102500008021204600F026F92046FFF791FD04E0E7
:10251000FFE78021204600F01DF994F8A002012871
:1025200004D184F8A05201E0204690470020AAE799
:1025300070B51546044649B1D4F8B40282691AB19F
:1025400094F89C02032830D0022070BDD4F8941275
:1025500004F5AA70032902D005291ED027E0D0E98E
:1025600003218A420BD9531AC3600846834200D321
:1025700003469AB229462046FFF73FFD17E0D4F8FC
:10258000B402016929B194F89C02032801D12046C4
:1025900088472046FFF764FD09E000200146C4F8A3
:1025A0009402204600F0D6F801E020469047002033
:1025B00070BD000010B517490446C1F8E802C0F824
:1025C000C01215480860082048600220886000207A
:1025D0008861C86108620846FEF79AFE08B1FDF7F7
:1025E000B9FE0022D4F8C0021823114604F5307455
:1025F000FEF73EFB5823002280212068FEF738FBBF
:102600004FF48073002281212068FEF731FB002007
:1026100010BD0000C4060020005C00400A0601F066
:102620007F01D0F8C00201EB810100EBC10002D5AF
:1026300090F82A00704790F86A01704710B51C4660
:102640001346D0F8C0022246FEF71BFDBDE810403D
:10265000FFF71EBE10B5D0F8C002FEF742FDBDE880
:102660001040FFF715BE70B5002204464023114606
:10267000FFF7E4FF40260125C4F8646133460022D9
:1026800080212046C4F85851FFF7D8FF6662A56143
:1026900084F89C520020C4F894026060C4F8A4023C
:1026A000D4F8B80228B1D4F8B40200214268204618
:1026B0009047002070BD90F89C12042903D190F837
:1026C0009D1280F89C120020704710B590F89C1263
:1026D000032904D1D0F8B412C96901B18847002098
:1026E00010BD01740020704710B5D0F8C002FEF78D
:1026F000B6FEBDE81040FFF7CBBD70B5044600F54F
:102700002A70054600F04AF80120C4F89402B4F893
:10271000AE02C4F8980294F8A80210F01F010AD083
:1027200001290DD0022910D000F08001204600F0D0
:1027300011F8002070BD2946204600F09EF8F8E709
:102740002946204600F0CAF9F3E72946204600F062
:102750001DF9EEE710B5D0F8C002FEF7DBFCBDE8CE
:102760001040FFF795BD10B5D0F8C002FEF792FEFD
:10277000BDE81040FFF78CBD90F89C1280F89D12C8
:10278000042180F89C120020704710B5D0F8C002D8
:10279000FEF7F9FCBDE81040FFF77ABD0A78027039
:1027A0004A7842708A78CB7802EB032242800A7919
:1027B0004B7902EB032282808A79C97902EB0121ED
:1027C000C18070470246002011B1C2F8B4127047B0
:1027D0000220704710B5D0F8B42202241AB1126852
:1027E000904700B90024204610BD000070B50E4689
:1027F0001E4D897804462970012931D894F89C022D
:1028000002280BD003280FD031462046FFF705FCE5
:1028100029782046BDE87040FFF7E8BBD9B1032016
:10282000616084F89C0209E071B16068884212D04E
:10283000C1B22046FFF7DAFB297861602046FFF736
:10284000C9FF02280CD006E0022084F89C02204632
:102850006160FFF7CBFB2046BDE87040FFF700BC8E
:1028600031462046BDE87040FFF7D7BB6C00002022
:1028700010B5FFF778FF002010BD2DE9F0410A7870
:10288000002612F0600208D0202A01D0402A70D120
:10289000D0F8B422926890476DE04B780022012571
:1028A0000A2B66D2DFE803F0405D655765080565D1
:1028B0002C29FFF755FC5EE004468888D8B9C88803
:1028C000C8B94888802816D200F07F0794F89C0287
:1028D000032810D084F89E7239462046FFF704FF83
:1028E0002046FFF7BDFB1FB1022084F89C0242E0A6
:1028F00084F89C523FE020463BE0FFF777FF3AE048
:10290000CB88012B35D190F89C32012B04D0022BBF
:1029100002D0032B2DD104E08260012200F10801D6
:1029200016E00122011D13E090F89C22012A03D039
:10293000022A01D0032A1CD1CA88022A19D1C560F3
:10294000D0F8A41209B10321C160022200F10C01E8
:10295000FFF779FB0FE0498801290CD1C0F8A45298
:1029600011E090F89C32012B08D0022B06D0032BEB
:1029700004D0FFF752FB3046BDE8F08149880129B9
:10298000F9D1C0F8A422FFF76BFBF4E72DE9F04181
:102990000A46044610780027097910F060030AD02F
:1029A000202B01D0402B50D1D4F8B40211468368BB
:1029B000204698478FE0C0F34110012806D0507898
:1029C000D0B301282AD003283FD107E0D4F8B402BD
:1029D000114683682046BDE8F041184794F89C02F0
:1029E000022802D0032872D10AE071B380296ED088
:1029F0002046FFF7AFFE80212046FFF7ABFE6AE0DE
:102A0000508838B931B1802904D0D08810B9204617
:102A1000FFF7A0FE2046FFF723FB5CE094F89C0242
:102A20000228E2D0032852D1508898BB4806F1D042
:102A30002046FFF708FDEDE7FFE794F89C0200262B
:102A4000022803D0032842D112E040E009B18029D6
:102A50003DD1080601F07F0000EB800004EB80010F
:102A600001D5143101E001F5AA7102220E602AE0BD
:102A7000080601F00F0000EB800004EB80000AD58F
:102A8000806920B301F07F0000EB800004EB80053B
:102A900014350BE01FE0D0F85801C0B101F07F0001
:102AA00000EB800004EB800505F5AA7541B1802993
:102AB00006D02046FFF7B2FD10B10120286000E0EB
:102AC0002E60022229462046FFF7BDFA03E0114698
:102AD0002046FFF7A2FA3846BDE8F08170B50546FA
:102AE00008780C4610F0600003D0202801D0402860
:102AF00016D195F89C02012803D0022801D00328A2
:102B00000ED1207901280BD8D5F8B4028268284666
:102B10009047E188014306D12846FFF7A1FA02E079
:102B20002846FFF77AFA002070BD704700487047CA
:102B3000B00600202DE9F0470C78002630F824304C
:102B400048F68F121340CA78002A7DD0012A7CD023
:102B5000022A02D0032A7FD0012648F280021343C2
:102B600020F824300D7830F8254048F68F731C404B
:102B70002C43144320F825400D7B48F2C00C48F646
:102B8000BF744CF280074BF68F79EDB391F800805B
:102B9000C24630F8285048F280181D4045EA080522
:102BA00020F82A50B0F8505091F80080054405EB09
:102BB0000815B1F8088028F00108A5F80084B0F8DD
:102BC000505091F80080054405EB0815B1F80A80D3
:102BD00028F00108A5F808844D78002D0D7830F80C
:102BE00025804FEA48487DD0B8F1000F07DA30F869
:102BF000258008EA030848EA070820F825800F78AE
:102C000030F827506D0600E02CE006D530F827504C
:102C10001D4045EA0C0520F82750CB780D78012B94
:102C200030F8253003EA040301D083F02003134376
:102C300020F825300B7830F8231001EA0901114300
:102C400020F82310304602E003E008E004E0BDE88D
:102C5000F08743F4007380E743F4C0637DE743F4F7
:102C600080637AE74D782DB3B0F850500F78054463
:102C700005EB0715CF8827F00107A5F800740F783A
:102C800030F827506D0606D530F827501D4045EA2C
:102C90000C0520F82750CB78012B06D00B7830F8A4
:102CA0002310214081F02001C9E70B7830F8231070
:102CB0002140C4E7B0F850400D78044404EB0514FB
:102CC000CD8825F00105A4F80854B0F850400D78DF
:102CD000044404EB05140D6904F20C4475B13E2D57
:102CE00014D800E030E04FEA550CED0701D00CF1AC
:102CF000010C4FF6FF7505EA8C2511E0258825F4B7
:102D0000F8452580258845F4004509E04FEA551C23
:102D1000ED0601D1ACF1010C4FF4004545EA8C25DC
:102D200025800D7830F82540640405D530F825401D
:102D30001C403C4320F825400B7830F8231001EA72
:102D4000090181F440517AE7B8F1000F07DA30F851
:102D5000258008EA030848EA070820F825800F784C
:102D600030F827506D0606D530F827501D4045EA4B
:102D70000C0520F827500D7830F8253003EA0903B8
:102D800083F44053134320F825308EE7002070472A
:102D90002DE9F04391F80C804F780A7848F6BF7C13
:102DA0004BF68F7948F2800348F2C0054CF280065A
:102DB00048F68F74B8F1000F28D0002F30F8227039
:102DC0004FEA474748D0002F05DA30F822702740F5
:102DD000374320F822700A7830F822707F0605D534
:102DE00030F8227027402F4320F822700D7830F8F9
:102DF00025202240324320F825200C7830F824206A
:102E000002EA0C021A4320F824201AE07FB130F8BD
:102E10002260760605D530F8226026402E4320F841
:102E200022600A7830F8221001EA0C010EE030F836
:102E300022506D0405D530F822502540354320F846
:102E400022500A7830F8221001EA0901194320F8CB
:102E500022100020BDE8F083002F05DA30F8227040
:102E60002740374320F822700A7830F8226076062F
:102E700005D530F8226026402E4320F822600E78D7
:102E800030F8262022402A4320F826200C7830F8FB
:102E9000242002EA09021A4320F82420C1E7002076
:102EA000704700207047012120F8401F0021018059
:102EB000818001820846704730F8401F21F43F416D
:102EC0000180002070470020704730B50A7BB2BBFC
:102ED0004A7848F68F7548F28004C2B10B7830F812
:102EE0002320520607D530F823202A4048F2C00597
:102EF0002A4320F82320CA78012A20D00A7830F803
:102F0000221048F6BF73194081F0200114E00A78BE
:102F100030F822305B0407D530F822302B404CF2D9
:102F200080052B4320F822300A7830F822104BF627
:102F30008F73194081F44051214320F82210002062
:102F400030BD10B54A780978002A48F2800330F87D
:102F5000212005D048F6BF74224082F0100204E020
:102F60004BF68F74224082F480521A4320F82120BD
:102F7000002010BD2DE9F04F0D464A78097B04462C
:102F80004FF0000948F68F7A48F2800B4FF6FF7732
:102F90004FF40048012A09D000297DD0E8780228A2
:102FA0007BD001287AD00120BDE8F08FAE69286976
:102FB000864200D9064681B1E97802291CD02878DA
:102FC00034F820104906B4F85010214401EB0010E9
:102FD00070D5A0F80C646A8928E1B3B2EA8820466B
:102FE000696900F05FFAB4F850002978204400EBDA
:102FF0000110A0F8046435E1296A814276D9297864
:1030000034F8210048F2801200EA0A00104324F844
:103010002100286A801B2862287834F8201049068D
:10302000697876D511B1012921D027E0B4F8501084
:10303000214401EB001000F20C404EB13E2E0FD89F
:103040007108F20700D0491C07EA8121018015E0D0
:10305000018821F4F8410180018841F40041F5E73D
:103060007109F20600D1491E48EA8121EEE7B4F861
:103070005020111901EB0010A0F80C646A89B3B25A
:103080002046696900F00EFA686930446861296970
:10309000286A884206D902E0EDE00DE178E1801B64
:1030A000286202E00646C5F82090687818B1012829
:1030B00024D02BE0B7E0B4F850002978204400EB8E
:1030C000011000F204404EB13E2E10D87108F207F4
:1030D00000D0491C07EA8121018017E0018821F412
:1030E000F8410180018841F40041F5E786E071096B
:1030F000F20600D1491E48EA8121EDE7B4F85000FC
:103100002978204400EB0110A0F804642A896FE0BC
:10311000FFE711B1012921D027E0B4F85010214474
:1031200001EB001000F204404EB13E2E0FD87108A2
:10313000F20700D0491C07EA8121018015E00188CF
:1031400021F4F8410180018841F40041F5E771095B
:10315000F20600D1491E48EA8121EEE7B4F850108A
:10316000214401EB0010A0F804642A89B3B2204680
:10317000696900F097F96869304468612969286ACB
:10318000884202D9801B286202E00646C5F82090DA
:10319000687810B1012822D029E0B4F850002978CD
:1031A000204400EB011000F20C404EB13E2E0FD82F
:1031B0007108F20700D0491C07EA8121018016E05E
:1031C000018821F4F8410180018841F40041F5E7CC
:1031D0007109F20600D1491E48EA8121EEE7B4F8F0
:1031E00050100819297800EB0110A0F80C646A89C6
:1031F000B3B22046696900F055F933E02A7834F813
:10320000220048F68F63184040EA0B0024F82200A1
:10321000B4F850002A78204400EB02108BB2A0F8DA
:1032200004342A89E5E7A0F804642A89B3B2204669
:10323000696900F037F9687810B1012808D011E009
:10324000297834F8210048F2C00200EA0A0006E0BA
:10325000297834F821004CF2800200EA0A00104379
:1032600024F82100297834F8210048F6BF72104074
:1032700080F03000DFE0A9692869814202D9091A8B
:10328000A961B6E00846C5F81890B2E0088820F4B5
:10329000F8400880088840F400400BE03E2876D8CB
:1032A0004208C00700D0521C07EA822002E000BF9B
:1032B00048EA82200880B6E092B9B4F85000297834
:1032C000204400EB0110296900F2044069B13E2955
:1032D00013D84A08C90700D0521C07EA822101808E
:1032E000687888B1012832D03AE0018821F4F841A9
:1032F0000180018841F40041F1E74A09C90600D183
:10330000521E48EA8221EAE7B4F8500029782044A6
:1033100000EB0110296900F20C4049B13E290FD899
:103320004A08C90700D0521C07EA8221018017E031
:10333000018821F4F8410180018841F40041F5E75A
:103340004A09C90600D1521E48EA8221EEE7B4F8C4
:1033500050100819297800EB0110298AA0F80C14E4
:10336000E869B0B3297834F82100420401D5420657
:1033700003D444F24002104255D134F8210048F2FF
:10338000C00200EA0A00104324F821004BE03CE0B0
:10339000A9692869814202D9091AA96102E008468F
:1033A000C5F818908AB9B4F850102A78214401EB76
:1033B000021101F2044168B13E2813D84208C30744
:1033C00000D0521C07EA82220A80697889B101295B
:1033D00021D028E00A8822F4F8420A800A8842F4C0
:1033E0000042F1E74209C30600D1521E48EA822298
:1033F000EAE7B4F850102A78214401EB021101F2F7
:103400000C4100287FF44AAF40E74209C0067FF430
:103410004FAF521E4CE7B4F8502011192A7801EB37
:103420000211A1F80C04297834F821004BF68F72B0
:10343000104080F4405040EA0B0024F821000020A6
:10344000B2E50021A0F844104FF43F41A0F840102D
:10345000002070470148FDF7B0BE0000C406002000
:10346000B0F844007047000010B500EB42005C0863
:1034700000F5806009D000BF30F8042B01F8012B63
:10348000120A01F8012B641EF6D1DA0701D0008878
:10349000087010BD0020704711B98021A0F84C10B1
:1034A0000020704710B55B1C00EB42005B0800F584
:1034B000806009D011F8012B11F8014B42EA042277
:1034C00020F8042B5B1EF5D110BDFEE70907090E9D
:1034D000002804DB00F1E02080F80014704700F0C1
:1034E0000F0000F1E02080F8141D704702E008C8CA
:1034F000121F08C1002AFAD170477047002001E06E
:1035000001C1121F002AFBD17047000008B5FDF76A
:103510001FFBFEF738FDFEF715FB1248416941F02D
:10352000010141614069002200F001000090114654
:103530000B20FDF76BFB0B20FDF75AFBFEF7DAFAC9
:10354000FEF742FB022208490848FDF75BF800BF7E
:10355000FEF75CFB04490522091D0548FEF7E7FE5E
:10356000F6E7000000100240020000207801002071
:10357000EC01002010B5401A029CE41A6043511A75
:1035800090FBF1F0184410BD0000000000000000A6
:103590000102030406070809B835000800000020EE
:1035A00078010000900100089036000878010020A2
:1035B000380C0000FC340008C11399201B08C90412
:1035C0001AD5041AFD041329211B0879081AA50429
:1035D000170403090412013202164083042B5726F4
:1035E0000201020301031A1A03191F118210532446
:1035F000F41305231408B5221B085508811AA910D5
:1036000001101AED141AE1041AF9041AD504140968
:1036100002221301011DE0320904591403010215AD
:10362000092111011401224A160705810304220A07
:10363000091F240A21072429486912314B0A06F47C
:1036400029CC100A05010902A1010901A1100805F0
:10365000091901290315180F250195037501810228
:103660009501750581012028173009310938158128
:10367000257F750895038106C0093C05FF090129CE
:10368000200E75019502B12275069501B101C000A9
:04000005080000ED02
:00000001FF
