:020000040800F2
:100000009804002001010008E3100008AB0F00086D
:10001000E11000086D0100084B140008000000000A
:10002000000000000000000000000000E7100008D1
:100030006F01000800000000E5100008E91000084A
:100040001B0100081B0100081B0100081B01000820
:100050001B0100081B0100081B0100081B01000810
:100060001B0100081B0100081B0100081B01000800
:100070001B0100081B0100081B0100081B010008F0
:100080001B0100081B0100081B0100081B010008E0
:100090001B0100081B0100081B0100081B010008D0
:1000A0001B0100081B0100081B0100081B010008C0
:1000B000791100081B0100081B0100081B01000842
:1000C0001B0100081B0100081B0100081B010008A0
:1000D0001B0100081B0100081B0100081B01000890
:1000E0001B0100081B0100081B010008DFF80CD0F1
:1000F00000F02AF8004800478D14000898040020FA
:100100000648804706480047FEE7FEE7FEE7FEE7B1
:10011000FEE7FEE7FEE7FEE7FEE7FEE73111000837
:10012000ED000008D2B201E000F8012B491EFBD21D
:1001300070470022F6E710B513460A4604461946F2
:10014000FFF7F0FF204610BD064C074D06E0E068C3
:1001500040F0010394E8070098471034AC42F6D30E
:10016000FFF7C8FFDC140008FC140008FEE7704726
:100170002DE9F84FDFF8B891002409F1040A0AF1DB
:10018000040B23460F270BF1040EC9E00125A540FF
:100190002A40AA427DD1674ED1F804C0ACEB0608D4
:1001A000B44532D014DCBCF1030F3AD009DCBCF109
:1001B000000F2AD0BCF1010F1CD0BCF1020F31D1CD
:1001C0001DE0BCF1110F17D0BCF1120F2AD119E0BC
:1001D000B8F5881F19D006DCB8F5803F15D0B8F502
:1001E000801F1FD111E0B8F5001F0ED0B8F5041F15
:1001F00018D10AE0CB6815E0CB681B1D12E0CB6874
:1002000008330FE0CB680C330CE08B682BB1012B6B
:100210004FF0080303D0456104E0042302E00561C8
:1002200000E00023FF2A01D8064601E000F10406A1
:100230004FEA840501D9A5F12005D6F8008007FA18
:1002400005FC28EA0C0803FA05F548EA0508C6F893
:1002500000804D68ED0062D5374DAE6946F001066D
:10026000AE61AD6924F0030605F001050095334D3C
:1002700006EB050CDCF80850A607360F07FA06F85F
:1002800025EA0805DFF8B880404503D14FF00008A3
:1002900017E044E0DFF8AC80404502D14FF00108A0
:1002A0000FE0DFF8A480404502D14FF0020808E0DB
:1002B000DFF89880404502D14FF0030801E04FF08D
:1002C000040808FA06F848EA0508CCF808804D68E2
:1002D000D9F80060ED034D4601D5164300E0964382
:1002E0002E604D68DAF80060AD03554601D516431F
:1002F00000E096432E604D68DBF80060ED025D463D
:1003000001D5164300E096432E604D68DEF800608C
:10031000AD02754601D5164300E096432E60641C7D
:100320000D682A46E5407FF431AFBDE8F88F000044
:1003300000040140000011100010024000000140C4
:1003400000080140000C0140001001400014014071
:10035000014880687047000004000020024881685E
:10036000027811448160704704000020074810B5EE
:10037000016841F010010160032000F075F80020D1
:1003800000F006F800F024F8002010BD0020024024
:1003900070B50D4D04464FF47A712878B1FBF0F03A
:1003A0000A490968B1FBF0F000F0CCFA48B9102C0A
:1003B00007D200222146501E00F036F800206C6063
:1003C00070BD012070BD000004000020100000205E
:1003D0000C4808B5816941F001018161816901F032
:1003E00001010091C16941F08051C161C06900F013
:1003F000805000900448416821F0E06141F00071B4
:10040000416008BD0010024000000140002809DBE7
:1004100000F01F02012191404009800000F1E0201E
:10042000C0F8001170470000F0B40E4B1B680C467A
:10043000C3F30223C3F10705042D00D90425191DB8
:10044000072901D2002300E0DB1E012606FA05F190
:10045000491E214099409E40761E16403143F0BC13
:1004600000F0F4BF0CED00E0064900F00702086858
:100470004FF6FF03184040EA0220034A1043086089
:10048000704700000CED00E00000FA052DE9F04790
:100490000F46050061D0434E306800F00700B842B7
:1004A00009D2306820F0070038433060306800F02F
:1004B0000700B84251D128683B4C810712D540074C
:1004C00003D5606840F4E06060602878000703D5D9
:1004D000606840F4605060606068A96820F0F000D7
:1004E000084360602878C00728D06868012810D0C9
:1004F0002168022810D0890700292EDA616821F0CE
:10050000030101436160FFF723FF804641F2883910
:100510000DE021688903EFE78901EDE7FFF718FF98
:10052000A0EB0801494502D90320BDE8F0876068C7
:10053000696800F00C00B0EB810FEFD1306800F07B
:100540000700B8420BD9306820F00700384330600C
:10055000306800F00700B84201D00120E5E72878B4
:10056000400705D56068E96820F4E06008436060F2
:100570002878000706D56068296920F4605040EAB1
:10058000C100606000F018F86168084AC1F3031107
:10059000515CC8400649086006480068FFF7F8FE4D
:1005A0000020C2E70020024000100240CC140008E6
:1005B000100000200800002012A185B00FC98DE8AE
:1005C0000F0014A0144A006804905168134801F009
:1005D0000C03042B10D0082B0ED1C1F38343C903A5
:1005E0001DF803000AD5516804AAC1F34041515CCB
:1005F0000A4A5043B0FBF1F005B070470849484340
:10060000FAE7000002030405060708090A0B0C0DAF
:100610000E0F1010010200000010024000127A00BC
:1006200000093D002DE9F84F040070D02078C04D3E
:10063000C00749D06868C0F38100012807D0686806
:10064000C0F38100022809D16868C00306D5286874
:10065000800339D560680028E7D035E06068B0F5E0
:10066000803F0BD010B1B0F5A02F11D0286820F436
:1006700080302860286820F4802002E0286840F458
:1006800080302860606890B1FFF762FE06460AE09D
:10069000286840F480202860F0E700BFFFF758FE8C
:1006A000801B642873D828688003F7D50CE0FFF717
:1006B0004FFE064605E000BFFFF74AFE801B642898
:1006C000F0D828688003F7D420789A4E80074FF03E
:1006D00001094FF0000839D5686810F00C0F07D0F9
:1006E0006868C0F38100022809D16868C00306D495
:1006F0002868800714D52069012808D110E02069F6
:10070000B0B1C6F80090FFF723FE074605E00AE106
:10071000FFF71EFEC01B0228C4D828688007F7D543
:100720002868616920F0F80040EAC10028600DE007
:10073000C6F80080FFF70CFE074604E0FFF708FE4E
:10074000C01B022823D828688007F7D42078000728
:100750002CD57948A169D9B1C0F80090FFF7F8FD10
:10076000074604E0FFF7F4FDC01B02280FD8686AB3
:100770008007F7D571484FF4FA510068B0FBF1F0EB
:10078000009000BF0098411E0091FAD20EE080E078
:10079000C0F80080FFF7DCFD074604E0FFF7D8FD56
:1007A000C01B022875D8686A8007F7D420784007F4
:1007B00060D5E8690027C00008D4E86940F080509F
:1007C000E861E869012700F0805000905C4801680A
:1007D000C90513D40168834641F480710160FFF7B5
:1007E000B7FD824606E000BFFFF7B2FDA0EB0A00AE
:1007F00064284ED8DBF80000C005F5D5E068012874
:100800000AD008B1052813D0286A20F00100286218
:10081000286A20F0040002E0286A40F00100286203
:10082000E06841F2883B98B1FFF792FD82460BE009
:10083000286A40F004002862EEE700BFFFF788FD59
:10084000A0EB0A0159455AD8286A8007F6D50CE072
:10085000FFF77EFD824605E0FFF77AFDA0EB0A0177
:1008600059454CD8286A8007F6D41FB1E86920F0B2
:100870008050E861E06988B36968C1F381010229A9
:1008800044D00228C6F8608004D0FFF761FD04461A
:1008900038E034E0FFF75CFD074604E0FFF758FD61
:1008A000C01B02282BD828688001F7D4206AB0F535
:1008B000803F05D16868A16820F400300843686073
:1008C000D4E908010843696821F474110843686099
:1008D000C6F86090FFF73CFD044606E025E000BF47
:1008E000FFF736FD001B022809D828688001F7D5DC
:1008F0001BE000BFFFF72CFD001B022802D90320DC
:10090000BDE8F88F28688001F4D40EE00128F7D004
:100910006868226A00F48031914204D1616A00F46F
:100920007010884201D00120EAE70020E8E70000CB
:1009300000100240000042428004424210000020A9
:100940000070004010B5401EB0F1807F01D301203F
:1009500010BD4FF0E02460610F21601700F076FDBC
:100960000020A06107202061002010BD7047704763
:1009700070B590F83C20012A19D0012400F83C4FB2
:100980000222427050F83C3C5A689D6822F0700682
:100990000A684968324325F0800529435A6050F8B7
:1009A0003C2C9160447000210170084670BD02200B
:1009B00070BD10B5040003D094F83D0010B107E0FD
:1009C000012010BD002084F83C00204600F00CF807
:1009D000022084F83D00211D206800F0D3FB012097
:1009E00084F83D00002010BD00B585B000210091C5
:1009F0000191029103910068B0F1804F1ED110481F
:100A0000C16941F00101C161C16901F001010491B5
:100A1000816941F0040181618069694600F0040048
:100A20000490012000900748FFF7A2FB0022114626
:100A30001C20FFF7F9FC1C20FFF7E8FC05B000BD07
:100A4000001002400008014070B5044690F83C00D8
:100A5000012817D0012584F83C50022084F83D007D
:100A60002068826822F0770222F47F428260086860
:100A7000502830D00DDC20284DD005DC98B310284C
:100A80003BD148E0022070BD302844D0402834D10A
:100A900039E0602828D0702806D0B0F5805F2CD0CF
:100AA000B0F5005F29D10AE0CB68D1E901212068C7
:100AB00000F0ABFB2068816841F0770109E0CB686A
:100AC000D1E90121206800F0A0FB2068816841F491
:100AD0008041816011E0CA684968206800F04AFCE2
:100AE0005021206807E016E0CA684968206800F0D5
:100AF0007FFC6021206800F092FB84F83D500020CC
:100B000084F83C0070BDCA684968206800F032FC77
:100B100040212068EFE7226801461046EBE700001D
:100B20000068B0F1804F06D103480068416B034A6A
:100B30001180002141627047140000200000002055
:100B40002DE9F041044690F83C000D4601283BD0C9
:100B5000012684F83C60022084F83D009AB3042A00
:100B600044D02068082A53D0D5E90027E968036AF1
:100B700023F480530362D0F81CC0036A2CF4407C39
:100B80004CEA07274FF6FF7C27F470470CEA013147
:100B90003943770323F4005307EA02321A43C16151
:100BA00002622068C16921F44061C1612068C169A5
:100BB000AA6841EA0221C16184F83D60002084F8FE
:100BC0003C00BDE8F08101E00220FAE7D5E900121F
:100BD000EB68206800F0E0FB2068816921F00C01DF
:100BE000816120688169AA6811430FE0D5E900128C
:100BF000EB68206800F00EFC2068816921F44061F8
:100C0000816120688169AA6841EA02218161D3E794
:100C1000D5E9002C2F7B016A21F480710162C16942
:100C2000036A21F0030141EA0C0121F0F00C3907BD
:100C30004FF400774CEA116123F4007307EA0222B3
:100C40001A43C16102622068C16921F00C01C161CF
:100C50002068C169AA681143ADE710B5040003D04C
:100C600094F83D0010B107E0012010BD002084F889
:100C70003C00204600F00CF8022084F83D00211DC5
:100C8000206800F07FFA012084F83D00002010BDAC
:100C9000704710B50268044631B1042908D008290C
:100CA0001AD00C2908D11BE0D06840F0020002E005
:100CB000D06840F00400D0600122206800F098FA6B
:100CC0002068816801F00701062903D0016841F01E
:100CD00001010160002010BDD06840F00800EAE783
:100CE000D06840F01000E6E770B50446006801697E
:100CF0004FF00005C943890715D4C168C943890766
:100D000011D4E91E016101202077206880698007E5
:100D1000204602D0FFF704FF04E000F0F6F820467A
:100D200000F040F9257720680169C943490717D4C5
:100D3000C168C943490713D46FF00401016102205F
:100D400020772068806910F4407F204602D0FFF7AA
:100D5000E7FE04E000F0D9F8204600F023F92577FB
:100D600020680169C943090716D4C168C943090746
:100D700012D46FF008010161042020772068C06957
:100D80008007204602D0FFF7CBFE04E000F0BDF85C
:100D9000204600F007F9257720680169C943C90694
:100DA00017D4C168C943C90613D46FF0100101619B
:100DB000082020772068C06910F4407F204602D0C8
:100DC000FFF7AEFE04E000F0A0F8204600F0EAF8DD
:100DD000257720680169C943C90708D1C168C9439B
:100DE000C90704D1891E0161204600F0DCF82068A3
:100DF0000169C943090609D4C168C943090605D474
:100E00006FF0800101612046FFF7B0FD20680169A5
:100E1000C943490609D4C168C943490605D46FF0DE
:100E200040010161204600F0BFF820680169C94314
:100E300089060BD4C168C943890607D46FF0200125
:100E400001612046BDE87040FFF791BD70BD000014
:100E500010B586B0002100910191029103910368C1
:100E6000114902221148B3F1804F13D0104CA34214
:100E70000ED18B6943F004038B61896901F0040191
:100E800004914021CDE9001269460392FFF770F901
:100E900006B010BD8B6943F004038B61896901F0D2
:100EA000040104910621EDE7001002400008014012
:100EB0000004004070B5044690F83C0001280DD0B5
:100EC000012584F83C50022084F83D0042B1042AF8
:100ED0000AD0082A0CD00C2A11D10DE0022070BDD6
:100EE000206800F0A5F90AE0206800F0C9F906E0E2
:100EF000206800F0F1F902E0206800F019FA84F8A7
:100F00003D50002084F83C0070BD704710B50400CF
:100F100003D094F83D0010B107E0012010BD00207F
:100F200084F83C00204600F00DF8022084F83D00D3
:100F3000211D206800F026F9012084F83D000020E2
:100F400010BD000008B500680649884208D106486F
:100F5000C16941F00201C161C06900F00200009066
:100F600008BD0000000400400010024010B5044617
:100F70000068012200F03CF909492068884203D149
:100F8000416C41F4004141642068816801F007012F
:100F9000062903D0016841F001010160002010BD65
:100FA000002C0140704770477047FEE730B591B0A4
:100FB00000240B940C940D940E940F9410940794A9
:100FC000089409941C2168460A94FFF7B2F8274D4B
:100FD0004FF0804028604FF4FA50C5E901044FF605
:100FE000FF70C5E903048020A8612846FFF7E1FCF3
:100FF0004FF480500B900BA92846FFF725FD28469B
:10100000FFF72BFE2846FFF781FF0F940FA9284614
:101010001094FFF7ADFC0120CDE9074009940022B0
:1010200007A928460A94FFF78BFD30200090322054
:10103000CDE901040422694628460494FFF73AFFEB
:101040002868816941F40061816163200190082270
:1010500069462846FFF72EFF2868C16941F008015C
:10106000C1612846FFF7F4FE11B030BD1400002026
:1010700030B589B0002407941C2168460894FFF716
:1010800058F8164D144828604FF4FA50C5E9010489
:101090003120C5E903048020A8612846FFF736FF08
:1010A000079407A928460894FFF762FC30200090B7
:1010B0001920CDE901040022694628460494FFF76F
:1010C000F9FE2868816941F0080181612846FFF72F
:1010D000BFFE09B030BD00000004004054000020F5
:1010E000FEE7704770477047FFF738B910B590B00A
:1010F00028216846FFF71DF814210AA8FFF719F800
:1011000002200090012004901020002405900794F4
:101110006846FFF787FA0F20CDE90A040C940D9476
:1011200000210AA80E94FFF7B1F910B010BD00001D
:101130000D48016841F00101016041680B4A11400E
:10114000416001680A4A11400160016821F4802170
:101150000160416821F4FE0141604FF41F0181608C
:101160000449C00308607047001002400000FFF807
:10117000FFFFF6FE08ED00E00148FFF7B5BD0000F7
:1011800014000020F0B50268164B174C174D4FF0B5
:101190008047984205D0B84203D0A04201D0A8426F
:1011A00003D122F070064A683243984205D0B84213
:1011B00003D0A04201D0A84203D122F44074CA68EF
:1011C00022434C6922F08002224302608A68C26294
:1011D0000A688262984201D1096901630121416173
:1011E000F0BD0000002C0140000400400008004059
:1011F00010B501F01F030121046A99408C43046279
:10120000016A9A401143016210BD10B5846842EA38
:10121000032224F47F440A432243826010BD826883
:1012200022F070020A4342F007018160704700001B
:1012300030B5026A22F001020262026A43688469E0
:1012400024F073050C682C4322F002058A682A43B7
:101250000A4DA8420BD122F00805CA6823F4407356
:101260002A434D6922F004021D438B692B434360DE
:10127000846149684163026230BD0000002C014076
:1012800030B5026A22F010020262026A4368846981
:101290000D6824F4E64444EA05248D6822F0200217
:1012A00042EA05120B4DA8420ED1CD6822F0800211
:1012B00042EA05124D6923F4406343EA85038D69D0
:1012C00022F0400243EA85034360846149688163F8
:1012D000026230BD002C014030B5026A22F48072F7
:1012E0000262036A4268C46923F4007324F0730540
:1012F0000C682C438D6843EA05230C4DA8420ED19F
:10130000CD6823F4006343EA05234D6922F440527B
:1013100042EA05128D6923F4806342EA05124260B5
:10132000C4614968C163036230BD0000002C014004
:1013300030B5026A22F480520262046A4268C369CC
:101340000D6823F4E64343EA05238D6824F4005432
:1013500044EA0534064DA84204D14D6922F4804286
:1013600042EA85124260C36149680164046230BD8B
:10137000002C014010B5036A046A24F001040462E1
:10138000846924F0F00444EA021423F00A020A43B8
:101390008461026210BD000070B5046A24F001048B
:1013A00004628469056A0F4EB04208D0B0F1804FE4
:1013B00005D00D4EB04202D00C4EB04203D124F005
:1013C0000304144301E044F001041A0724F0F0047C
:1013D00044EA126225F00A0301F00A01194382610E
:1013E000016270BD002C0140000400400008004074
:1013F00010B5036A23F0100303628369046A23F4BF
:10140000704343EA023224F0A00343EA01118261EF
:10141000016210BD30B5046A24F0100404628469CE
:10142000056A24F4407444EA022222F470444FF620
:10143000FF7202EA03322243A02425F0A00304EA4B
:10144000011119438261016230BDFEE70907090EEF
:10145000002804DB00F1E02080F80014704700F061
:101460000F0000F1E02080F8141D704702E008C86A
:10147000121F08C1002AFAD170477047002001E00E
:1014800001C1121F002AFBD17047000008B5FEF70A
:101490006DFFFFF72BFE0B48816941F0040181616C
:1014A000806900F004000090FFF780FDFFF7E0FD89
:1014B00000210548FFF7EDFB034800214030FFF70E
:1014C00055FDFEE70010024014000020000000005F
:1014D000000000000102030406070809FC140008CC
:1014E00000000020140000006C1400081015000813
:1014F00014000020840400007C1400080000000098
:101500000100000010000000000000000024F400B2
:04000005080000ED02
:00000001FF
