:020000040800F2
:100000002804002001010008D70900085D09000844
:10001000D50900086D010008250A0008000000004D
:10002000000000000000000000000000DB090008E4
:100030006F01000800000000D9090008DD09000870
:100040001B0100081B0100081B0100081B01000820
:100050001B0100081B0100081B0100081B01000810
:100060001B0100081B0100081B0100081B01000800
:100070001B0100081B0100081B0100081B010008F0
:100080001B0100081B0100081B0100081B010008E0
:100090001B0100081B0100081B0100081B010008D0
:1000A0001B0100081B0100081B0100081B010008C0
:1000B0001B0100081B0100081B0100081B010008B0
:1000C0001B0100081B0100081B0100081B010008A0
:1000D0001B0100081B0100081B0100081B01000890
:1000E0001B0100081B0100081B010008DFF80CD0F1
:1000F00000F02AF800480047650A0008280400209C
:100100000648804706480047FEE7FEE7FEE7FEE7B1
:10011000FEE7FEE7FEE7FEE7FEE7FEE7230A00084C
:10012000ED000008D2B201E000F8012B491EFBD21D
:1001300070470022F6E710B513460A4604461946F2
:10014000FFF7F0FF204610BD064C074D06E0E068C3
:1001500040F0010394E8070098471034AC42F6D30E
:10016000FFF7C8FFD00A0008F00A0008FEE7704752
:100170002DE9F84FDFF8B891002409F1040A0AF1DB
:10018000040B23460F270BF1040EC9E00125A540FF
:100190002A40AA427DD1674ED1F804C0ACEB0608D4
:1001A000B44532D014DCBCF1030F3AD009DCBCF109
:1001B000000F2AD0BCF1010F1CD0BCF1020F31D1CD
:1001C0001DE0BCF1110F17D0BCF1120F2AD119E0BC
:1001D000B8F5881F19D006DCB8F5803F15D0B8F502
:1001E000801F1FD111E0B8F5001F0ED0B8F5041F15
:1001F00018D10AE0CB6815E0CB681B1D12E0CB6874
:1002000008330FE0CB680C330CE08B682BB1012B6B
:100210004FF0080303D0456104E0042302E00561C8
:1002200000E00023FF2A01D8064601E000F10406A1
:100230004FEA840501D9A5F12005D6F8008007FA18
:1002400005FC28EA0C0803FA05F548EA0508C6F893
:1002500000804D68ED0062D5374DAE6946F001066D
:10026000AE61AD6924F0030605F001050095334D3C
:1002700006EB050CDCF80850A607360F07FA06F85F
:1002800025EA0805DFF8B880404503D14FF00008A3
:1002900017E044E0DFF8AC80404502D14FF00108A0
:1002A0000FE0DFF8A480404502D14FF0020808E0DB
:1002B000DFF89880404502D14FF0030801E04FF08D
:1002C000040808FA06F848EA0508CCF808804D68E2
:1002D000D9F80060ED034D4601D5164300E0964382
:1002E0002E604D68DAF80060AD03554601D516431F
:1002F00000E096432E604D68DBF80060ED025D463D
:1003000001D5164300E096432E604D68DEF800608C
:10031000AD02754601D5164300E096432E60641C7D
:100320000D682A46E5407FF431AFBDE8F88F000044
:1003300000040140000011100010024000000140C4
:1003400000080140000C0140001001400014014071
:100350000AB1016170470904FBE7000001488068A9
:1003600070470000140000200248816802781144A0
:100370008160704714000020074810B5016841F003
:1003800010010160032000F067F8002000F006F87B
:1003900000F024F8002010BD0020024070B50D4D83
:1003A00004464FF47A712878B1FBF0F00A490968E5
:1003B000B1FBF0F000F0BEFA48B9102C07D20022D1
:1003C0002146501E00F028F800206C6070BD01200E
:1003D00070BD000014000020200000200C4808B56B
:1003E000816941F001018161816901F001010091A0
:1003F000C16941F08051C161C06900F08050009036
:100400000448416821F0E06141F00071416008BD9D
:100410000010024000000140F0B40E4B1B680C4677
:10042000C3F30223C3F10705042D00D90425191DC8
:10043000072901D2002300E0DB1E012606FA05F1A0
:10044000491E214099409E40761E16403143F0BC23
:1004500000F0E9BA0CED00E0064900F00702086878
:100460004FF6FF03184040EA0220034A1043086099
:10047000704700000CED00E00000FA052DE9F047A0
:100480000F46050061D0434E306800F00700B842C7
:1004900009D2306820F0070038433060306800F03F
:1004A0000700B84251D128683B4C810712D540075C
:1004B00003D5606840F4E06060602878000703D5E9
:1004C000606840F4605060606068A96820F0F000E7
:1004D000084360602878C00728D06868012810D0D9
:1004E0002168022810D0890700292EDA616821F0DE
:1004F000030101436160FFF731FF804641F2883913
:100500000DE021688903EFE78901EDE7FFF726FF9A
:10051000A0EB0801494502D90320BDE8F0876068D7
:10052000696800F00C00B0EB810FEFD1306800F08B
:100530000700B8420BD9306820F00700384330601C
:10054000306800F00700B84201D00120E5E72878C4
:10055000400705D56068E96820F4E0600843606002
:100560002878000706D56068296920F4605040EAC1
:10057000C100606000F018F86168084AC1F3031117
:10058000515CC8400649086006480068FFF706FF4E
:100590000020C2E70020024000100240C00A00080C
:1005A000200000201800002012A185B00FC98DE89E
:1005B0000F0014A0144A006804905168134801F019
:1005C0000C03042B10D0082B0ED1C1F38343C903B5
:1005D0001DF803000AD5516804AAC1F34041515CDB
:1005E0000A4A5043B0FBF1F005B070470849484350
:1005F000FAE7000002030405060708090A0B0C0DC0
:100600000E0F1010010200000010024000127A00CC
:1006100000093D002DE9F84F040070D02078C04D4E
:10062000C00749D06868C0F38100012807D0686816
:10063000C0F38100022809D16868C00306D5286884
:10064000800339D560680028E7D035E06068B0F5F0
:10065000803F0BD010B1B0F5A02F11D0286820F446
:1006600080302860286820F4802002E0286840F468
:1006700080302860606890B1FFF770FE06460AE09F
:10068000286840F480202860F0E700BFFFF766FE8E
:10069000801B642873D828688003F7D50CE0FFF727
:1006A0005DFE064605E000BFFFF758FE801B64288C
:1006B000F0D828688003F7D420789A4E80074FF04E
:1006C00001094FF0000839D5686810F00C0F07D009
:1006D0006868C0F38100022809D16868C00306D4A5
:1006E0002868800714D52069012808D110E0206906
:1006F000B0B1C6F80090FFF731FE074605E00AE109
:10070000FFF72CFEC01B0228C4D828688007F7D545
:100710002868616920F0F80040EAC10028600DE017
:10072000C6F80080FFF71AFE074604E0FFF716FE42
:10073000C01B022823D828688007F7D42078000738
:100740002CD57948A169D9B1C0F80090FFF706FE11
:10075000074604E0FFF702FEC01B02280FD8686AB4
:100760008007F7D571484FF4FA510068B0FBF1F0FB
:10077000009000BF0098411E0091FAD20EE080E088
:10078000C0F80080FFF7EAFD074604E0FFF7E6FD4A
:10079000C01B022875D8686A8007F7D42078400704
:1007A00060D5E8690027C00008D4E86940F08050AF
:1007B000E861E869012700F0805000905C4801681A
:1007C000C90513D40168834641F480710160FFF7C5
:1007D000C5FD824606E000BFFFF7C0FDA0EB0A00A2
:1007E00064284ED8DBF80000C005F5D5E068012884
:1007F0000AD008B1052813D0286A20F00100286229
:10080000286A20F0040002E0286A40F00100286213
:10081000E06841F2883B98B1FFF7A0FD82460BE00B
:10082000286A40F004002862EEE700BFFFF796FD5B
:10083000A0EB0A0159455AD8286A8007F6D50CE082
:10084000FFF78CFD824605E0FFF788FDA0EB0A016B
:1008500059454CD8286A8007F6D41FB1E86920F0C2
:100860008050E861E06988B36968C1F381010229B9
:1008700044D00228C6F8608004D0FFF76FFD04461C
:1008800038E034E0FFF76AFD074604E0FFF766FD55
:10089000C01B02282BD828688001F7D4206AB0F545
:1008A000803F05D16868A16820F400300843686083
:1008B000D4E908010843696821F4741108436860A9
:1008C000C6F86090FFF74AFD044606E025E000BF49
:1008D000FFF744FD001B022809D828688001F7D5DE
:1008E0001BE000BFFFF73AFD001B022802D90320DE
:1008F000BDE8F88F28688001F4D40EE00128F7D015
:100900006868226A00F48031914204D1616A00F47F
:100910007010884201D00120EAE70020E8E70000DB
:1009200000100240000042428004424220000020A9
:100930000070004010B5401EB0F1807F01D301204F
:1009400010BD4FF0E02460610F21601700F06BF8DC
:100950000020A06107202061002010BDFEE70000FC
:1009600070B586B000241848009401940294039452
:10097000816941F010018161816901F010010491E8
:10098000816941F0040181618069104E00F004002A
:100990004FF400550490002229463046FFF7D8FC5A
:1009A0000220CDE9024000950125694601953046B7
:1009B000FFF7DEFBCDE90054694605480295FFF7D5
:1009C000D7FB06B070BD00000010024000100140CF
:1009D00000080140FEE7704770477047FFF7C4BC4E
:1009E00010B590B028216846FFF7A3FB14210AA890
:1009F000FFF79FFB022000900120049010200024AC
:100A0000059007946846FFF705FE0F20CDE90A041C
:100A10000C940D9400210AA80E94FFF72FFD10B03E
:100A200010BD7047FEE70907090E002804DB00F13E
:100A3000E02080F80014704700F00F0000F1E02083
:100A400080F8141D704702E008C8121F08C1002A70
:100A5000FAD170477047002001E001C1121F002A3F
:100A6000FBD17047FFF788FCFFF7BAFFFFF778FF6D
:100A70000C480D4A114B017802EB810141600B4992
:100A8000816041780A4A02EB8101C16009490A4A42
:100A9000C0F81010D2F80011C9B28170C3F8B411B7
:100AA000F8E7000000000020800122420C10014005
:100AB00000012142080801400000214200002242BA
:100AC00000000000000000000102030406070809FE
:100AD000F00A00080000002024000000460A000878
:100AE000140B00082400002004040000560A00082B
:100AF0000D000000000000000000000000000000E9
:100B000000000000010000001000000000000000D4
:040B10000024F400C9
:04000005080000ED02
:00000001FF
