:020000040800F2
:1000000028040020010100086B0D0008EB0C00081B
:10001000690D00086D0100082910000800000000AB
:10002000000000000000000000000000830F000836
:100030006F010008000000006D0D0008850F00082A
:100040001B0100081B0100081B0100081B01000820
:100050001B0100081B0100081B0100081B01000810
:100060001B0100081B0100081B0100081B01000800
:100070001B0100081B0100081B0100081B010008F0
:100080001B0100081B0100081B0100081B010008E0
:100090001B0100081B0100081B0100081B010008D0
:1000A0001B0100081B0100081B0100081B010008C0
:1000B0001B0100081B0100081B0100081B010008B0
:1000C0001B0100081B0100081B0100081B010008A0
:1000D0001B0100081B0100081B0100081B01000890
:1000E0001B0100081B0100081B010008DFF80CD0F1
:1000F00000F02AF800480047691000082804002092
:100100000648804706480047FEE7FEE7FEE7FEE7B1
:10011000FEE7FEE7FEE7FEE7FEE7FEE7E10F000889
:10012000ED000008D2B201E000F8012B491EFBD21D
:1001300070470022F6E710B513460A4604461946F2
:10014000FFF7F0FF204610BD064C074D06E0E068C3
:1001500040F0010394E8070098471034AC42F6D30E
:10016000FFF7C8FFD0100008F0100008FEE7704746
:1001700070B5044600F00EF80546601C02D0044835
:100180000078044400F006F8401BA042FAD370BD8A
:10019000040000200148806870470000040000202F
:1001A0000248816802781144816070470400002091
:1001B000074810B5016841F010010160032000F00C
:1001C00067F8002000F006F800F024F8002010BDC9
:1001D0000020024070B50D4D04464FF47A71287826
:1001E000B1FBF0F00A490968B1FBF0F000F069FDDD
:1001F00048B9102C07D200222146501E00F028F8E2
:1002000000206C6070BD012070BD00000400002063
:10021000100000200C4808B5816941F0010181619E
:10022000816901F001010091C16941F08051C16112
:10023000C06900F0805000900448416821F0E061FE
:1002400041F00071416008BD001002400000014013
:10025000F0B40E4B1B680C46C3F30223C3F1070531
:10026000042D00D90425191D072901D2002300E01F
:10027000DB1E012606FA05F1491E214099409E40E9
:10028000761E16403143F0BC00F0CFBE0CED00E00E
:10029000064900F0070208684FF6FF03184040EADD
:1002A0000220034A10430860704700000CED00E094
:1002B0000000FA05014901200862704700000E4263
:1002C00010B529A401461DCC86B08DE81D002AA0DA
:1002D0002A4C006804900020012923D002293AD03A
:1002E00010291DD161682268D20119D5C1F383425A
:1002F000C9031DF8020009D5616804AAC1F3404191
:10030000515C1F4AB2FBF1F1484301E01D494843EB
:100310006168490204D440005FF00301B0FBF1F0D2
:1003200006B010BD226AC2F30121012903D1920750
:1003300001D5C803F4E7022905D1626A920702D504
:1003400049F64040ECE70329EAD121688903E7D563
:100350004FF22440E4E700F023F96168C1F38131F2
:10036000491C4900DAE700000203040506070809F2
:100370000A0B0C0D0E0F10100102000000100240BD
:1003800000127A0000093D002DE9F8430546007887
:10039000354CC00754D0E0690026C00008D4E0699D
:1003A00040F08050E061E069012600F0805000904C
:1003B0002E480168C90512D40168804641F4807155
:1003C0000160FFF7E7FE074605E000BFFFF7E2FE2A
:1003D000C01B642823D8D8F80000C005F6D5206AD1
:1003E00010F4407021D0A98801F4407181421CD0E2
:1003F000206A1F49012220F440700A6000220A602E
:100400002062C00711D0FFF7C5FE074641F28838C9
:1004100008E000BFFFF7BEFEC11B414502D9032023
:10042000BDE8F883206A8007F4D5206A696820F463
:100430004070084320621EB1E06920F08050E06106
:100440002878800705D56068A96820F440400843F3
:1004500060602878C00605D56068E96820F48000EF
:10046000084360600020DBE700100240007000409D
:10047000400442422DE9F0470F46050061D0434E4B
:10048000306800F00700B84209D2306820F0070059
:1004900038433060306800F00700B84251D1286816
:1004A0003B4C810712D5400703D5606840F4E060FB
:1004B00060602878000703D5606840F46050606091
:1004C0006068A96820F0F000084360602878C007E1
:1004D00028D06868012810D02168022810D0890728
:1004E00000292EDA616821F0030101436160FFF702
:1004F00051FE804641F288390DE021688903EFE71B
:100500008901EDE7FFF746FEA0EB0801494502D956
:100510000320BDE8F0876068696800F00C00B0EB6C
:10052000810FEFD1306800F00700B8420BD9306876
:1005300020F0070038433060306800F00700B84210
:1005400001D00120E5E72878400705D56068E96813
:1005500020F4E060084360602878000706D56068F2
:10056000296920F4605040EAC100606000F028F87A
:100570006168084AC1F30311515CC840064908602C
:1005800006480068FFF726FE0020C2E70020024070
:1005900000100240B81000081000002008000020E1
:1005A0000448054900684968044AC1F3C221515C06
:1005B000C84070471000002000100240C81000081A
:1005C00012A185B00FC98DE80F0014A0144A00686D
:1005D00004905168134801F00C03042B10D0082B31
:1005E0000ED1C1F38343C9031DF803000AD5516836
:1005F00004AAC1F34041515C0A4A5043B0FBF1F0F8
:1006000005B0704708494843FAE7000002030405B3
:10061000060708090A0B0C0D0E0F1010010200004E
:100620000010024000127A0000093D002DE9F84F49
:10063000040070D02078C04DC00749D06868C0F36E
:100640008100012807D06868C0F38100022809D121
:100650006868C00306D52868800339D5606800281B
:10066000E7D035E06068B0F5803F0BD010B1B0F551
:10067000A02F11D0286820F480302860286820F44A
:10068000802002E0286840F480302860606890B1E3
:10069000FFF780FD06460AE0286840F480202860C5
:1006A000F0E700BFFFF776FD801B642873D8286849
:1006B0008003F7D50CE0FFF76DFD064605E000BFAF
:1006C000FFF768FD801B6428F0D828688003F7D402
:1006D00020789A4E80074FF001094FF0000839D575
:1006E000686810F00C0F07D06868C0F3810002281A
:1006F00009D16868C00306D42868800714D520692A
:10070000012808D110E02069B0B1C6F80090FFF7C9
:1007100041FD074605E00AE1FFF73CFDC01B02284A
:10072000C4D828688007F7D52868616920F0F800E8
:1007300040EAC10028600DE0C6F80080FFF72AFDFE
:10074000074604E0FFF726FDC01B022823D82868CF
:100750008007F7D4207800072CD57948A169D9B152
:10076000C0F80090FFF716FD074604E0FFF712FD02
:10077000C01B02280FD8686A8007F7D571484FF46C
:10078000FA510068B0FBF1F0009000BF0098411EE4
:100790000091FAD20EE080E0C0F80080FFF7FAFC8A
:1007A000074604E0FFF7F6FCC01B022875D8686A0C
:1007B0008007F7D42078400760D5E8690027C0009B
:1007C00008D4E86940F08050E861E869012700F04A
:1007D000805000905C480168C90513D401688346C5
:1007E00041F480710160FFF7D5FC824606E000BF4E
:1007F000FFF7D0FCA0EB0A0064284ED8DBF800001D
:10080000C005F5D5E06801280AD008B1052813D045
:10081000286A20F001002862286A20F0040002E023
:10082000286A40F001002862E06841F2883B98B1F4
:10083000FFF7B0FC82460BE0286A40F00400286213
:10084000EEE700BFFFF7A6FCA0EB0A0159455AD816
:10085000286A8007F6D50CE0FFF79CFC824605E08D
:10086000FFF798FCA0EB0A0159454CD8286A80078D
:10087000F6D41FB1E86920F08050E861E06988B3E0
:100880006968C1F38101022944D00228C6F860805A
:1008900004D0FFF77FFC044638E034E0FFF77AFC31
:1008A000074604E0FFF776FCC01B02282BD8286817
:1008B0008001F7D4206AB0F5803F05D16868A1684F
:1008C00020F4003008436860D4E9080108436968EF
:1008D00021F4741108436860C6F86090FFF75AFC71
:1008E000044606E025E000BFFFF754FC001B022889
:1008F00009D828688001F7D51BE000BFFFF74AFC44
:10090000001B022802D90320BDE8F88F2868800167
:10091000F4D40EE00128F7D06868226A00F4803130
:10092000914204D1616A00F47010884201D0012024
:10093000EAE70020E8E70000001002400000424221
:10094000800442421000002000700040024850F82D
:10095000210080B270470000006C0040024800EBAC
:10096000810091B201607047006C00402DE9F047B2
:1009700091460C465FEA00084AD084B3D8F80000DC
:100980004068400744D4404600F098FA4FF4616252
:100990000546B0FBF2F1B0FBF2F302FB13503C232F
:1009A000B0FBF3F0B5FBF2F6607002FB1650B0FB43
:1009B000F3F203FB1200A070182931D31820B1FB09
:1009C000F0F7B1FBF0F200FB12102070404600F08F
:1009D0006EFA411C04D0A84202D9461B02E017E07F
:1009E0004FF0FF36A7EB071000EB4000C0EB001004
:1009F00005EBC0152946404600F0AFFA40B9701C1F
:100A000001D0711900E03146404600F092FA10B171
:100A10000120BDE8F0873946404600F0BCF900E00F
:100A20002170B9F1000F0BD0207800F0A9F92070E7
:100A3000607800F0A5F96070A07800F0A1F9A070CE
:100A40000020E6E770B5040003D0607C002610B1FA
:100A500005E0012070BD2674204600F043F8022016
:100A60006074204600F010F9042578BB204600F0A1
:100A7000E9F958BB2068416821F007014160A0688E
:100A800020B11748016821F0010101601448001FDE
:100A90000168A26821F46071114301606068411C23
:100AA00004D10120FFF70CFC80B1401E21688A6848
:100AB00022F00F0242EA10428A602168CA6860F39D
:100AC0000F02CA60204600F0D7F908B16574C0E78C
:100AD000E67301206073A0736074002070BD000095
:100AE000306C004008B50068084988420DD1FFF716
:100AF000E1FB0748C16941F00061C161C069054976
:100B000000F0006000900120086008BD002800404F
:100B1000001002403C0442422DE9F0410D46040021
:100B20003BD0C5B3207C01283AD04FF0010884F8AF
:100B3000108002206074E87872B300F018F9E07356
:100B4000687800F014F96073A87800F010F9A073C9
:100B5000C2B2617BE07B00F0C1F9207328702046AF
:100B600000F0ACF94FF46161B0FBF1F100251829F8
:100B70002DD91822B1FBF2F1A1EB011101EB4101DA
:100B8000C1EB011100EBC1163146204600F0E5F93A
:100B90000427C8B90BE000E004E00120BDE8F081C3
:100BA0000220FBE7E07368786073A878CFE72046FF
:100BB00000F07DF9411C0AD0B04208D20649014438
:100BC000204600F0B6F910B167742574E5E784F8A3
:100BD000118025740020E1E7805101002DE9F041EA
:100BE0000D46040024D01DB3207C012823D04FF0F3
:100BF000010884F81080022060742878EAB100F0BF
:100C0000B6F84FF4616100FB01F6687800F0AFF8C8
:100C1000C0EB001006EB8006A87800F0A8F83518A5
:100C20002946204600F099F90026042710BB0FE062
:100C30000120BDE8F0810220FBE74FF461614843E9
:100C40006978C1EB011100EB8100A9784518E7E74D
:100C50002068416821F005014160204600F027F935
:100C6000411C0AD0A84208D206490144204600F09F
:100C700060F910B167742674DAE784F8118026747D
:100C80000020D6E78051010070B504000AD020682A
:100C9000416821F008014160FFF77CFA05464FF4F6
:100CA0007A7608E0012070BDFFF774FA401BB0426D
:100CB00001D9032070BD206840680007F4D50020EA
:100CC00070BD10B5401EB0F1807F01D3012010BD72
:100CD0004FF0E02460610F21601700F0A6F90020BA
:100CE000A06107202061002010BDFEE77CB5002434
:100CF0001C4801941A4900940160611E41604FF440
:100D000040718160FFF79EFE01211648FFF71EFE2D
:100D100041F69315A84222D015208DF80400392001
:100D20008DF805008DF80640012201A90D48FFF756
:100D300055FF01208DF8000008208DF801000320E8
:100D40008DF8020020208DF8030001226946054835
:100D5000FFF7E2FE2A4601210248FFF7FFFD7CBDB6
:100D60000028004014000020FEE77047704701098A
:100D700001EB810100F00F0000EB4100C0B27047B1
:100D8000002102E00A38C0B2491C0A28FAD2090739
:100D900040EA116070472DE9F04104460025C07B10
:100DA000627BA37B42E0012A16D0032A14D0052AD5
:100DB00012D0072A10D0082A0ED00A2A0CD00C2AEA
:100DC0000AD0042A10D0062A0ED0092A0CD00B2AE9
:100DD0000AD0022A0DD028E01F2B0CD30C2A05D1F3
:100DE00001221346401C20E01E2B04D30123521C79
:100DF0001BE01C2B02D203F1010316E011D183B2D8
:100E00009E0710D16426B3FBF6F706FB173636B9FA
:100E10004FF4C876B3FBF6F706FB17331BB91D2357
:100E200003E01D2B01D1032201236D1C8D42BAD397
:100E3000D1B2E0736173DAB2A27300F04FF820739D
:100E4000BDE8F08170B50446FFF7A4F905464FF4FC
:100E50007A7606E0FFF79EF9401BB04201D90320E5
:100E600070BD206840688006F4D52068416841F074
:100E700010014160002070BD70B5044600684168F3
:100E800021F010014160FFF785F905464FF47A76AD
:100E900007E000BFFFF77EF9401BB04201D90320F5
:100EA00070BD206840688006F4D5002070BD0168E0
:100EB000086A496A89B241EA00407047006881695E
:100EC0008AB2C1698BB2816989B28A4203D0C06992
:100ED00061F31F40704743EA02407047F0B5642455
:100EE000C1EBC1030927A500072603EB0113032962
:100EF000B3FBF7F100F5FA60114401440AD2401E39
:100F0000B0FBF4F201EB9001B0FBF5F0891A084454
:100F1000001D08E0B0FBF4F201EB9001B0FBF5F02E
:100F2000891A0844801CB0FBF6F106FB1100C0B220
:100F3000F0BD70B50D4606460024FFF783FF48B9A3
:100F40003168280C08623168A8B248623046FFF761
:100F500093FF00B10124204670BD70B50D460646D2
:100F60000024FFF76FFF48B93168280C88613168A9
:100F7000A8B2C8613046FFF77FFF00B101242046C8
:100F800070BD7047FFF70CB930B593B028216846A3
:100F9000FFF7CFF814210AA8FFF7CBF800240125AA
:100FA0000F940A200090102010941194CDE9045061
:100FB000CDE9065412946846FFF738FB0F20CDE9BF
:100FC0000A040C940D9400210AA80E94FFF752FA1B
:100FD0006802CDE90F500FA8FFF7D6F913B030BD66
:100FE0000D48016841F00101016041680B4A114060
:100FF000416001680A4A11400160016821F48021C2
:101000000160416821F4FE0141604FF41F018160DD
:101010000449C00308607047001002400000FFF858
:10102000FFFFF6FE08ED00E0FEE70907090E0028C5
:1010300004DB00F1E02080F80014704700F00F009E
:1010400000F1E02080F8141D704702E008C8121F6C
:1010500008C1002AFAD170477047002001E001C1A1
:10106000121F002AFBD1704708B5FFF7A1F8FFF760
:101070008BFF0E48816941F010018161816901F0A7
:1010800010010091816941F004018161806900F0E3
:1010900004000090FFF72AFE002205490548FFF7EB
:1010A00065FC6420FFF764F8F6E7000000100240DA
:1010B00000000020140000200000000000000000DC
:1010C00001020304060708090000000001020304EE
:1010D000F010000800000020140000004A10000872
:1010E0000411000814000020140400005A10000825
:1010F00000000000010000001000000000000000DF
:041100000024F400D3
:04000005080000ED02
:00000001FF
